{
  "_format": "hh-sol-artifact-1",
  "contractName": "YAMORegistryV2",
  "sourceName": "contracts/YAMORegistryV2.sol",
  "abi": [
    {
      "inputs": [],
      "name": "AccessControlBadConfirmation",
      "type": "error"
    },
    {
      "inputs": [
        {
          "internalType": "address",
          "name": "account",
          "type": "address"
        },
        {
          "internalType": "bytes32",
          "name": "neededRole",
          "type": "bytes32"
        }
      ],
      "name": "AccessControlUnauthorizedAccount",
      "type": "error"
    },
    {
      "inputs": [
        {
          "internalType": "address",
          "name": "target",
          "type": "address"
        }
      ],
      "name": "AddressEmptyCode",
      "type": "error"
    },
    {
      "inputs": [
        {
          "internalType": "address",
          "name": "implementation",
          "type": "address"
        }
      ],
      "name": "ERC1967InvalidImplementation",
      "type": "error"
    },
    {
      "inputs": [],
      "name": "ERC1967NonPayable",
      "type": "error"
    },
    {
      "inputs": [],
      "name": "FailedCall",
      "type": "error"
    },
    {
      "inputs": [],
      "name": "InvalidInitialization",
      "type": "error"
    },
    {
      "inputs": [],
      "name": "NotInitializing",
      "type": "error"
    },
    {
      "inputs": [],
      "name": "UUPSUnauthorizedCallContext",
      "type": "error"
    },
    {
      "inputs": [
        {
          "internalType": "bytes32",
          "name": "slot",
          "type": "bytes32"
        }
      ],
      "name": "UUPSUnsupportedProxiableUUID",
      "type": "error"
    },
    {
      "anonymous": false,
      "inputs": [
        {
          "indexed": false,
          "internalType": "uint64",
          "name": "version",
          "type": "uint64"
        }
      ],
      "name": "Initialized",
      "type": "event"
    },
    {
      "anonymous": false,
      "inputs": [
        {
          "indexed": true,
          "internalType": "bytes32",
          "name": "role",
          "type": "bytes32"
        },
        {
          "indexed": true,
          "internalType": "bytes32",
          "name": "previousAdminRole",
          "type": "bytes32"
        },
        {
          "indexed": true,
          "internalType": "bytes32",
          "name": "newAdminRole",
          "type": "bytes32"
        }
      ],
      "name": "RoleAdminChanged",
      "type": "event"
    },
    {
      "anonymous": false,
      "inputs": [
        {
          "indexed": true,
          "internalType": "bytes32",
          "name": "role",
          "type": "bytes32"
        },
        {
          "indexed": true,
          "internalType": "address",
          "name": "account",
          "type": "address"
        },
        {
          "indexed": true,
          "internalType": "address",
          "name": "sender",
          "type": "address"
        }
      ],
      "name": "RoleGranted",
      "type": "event"
    },
    {
      "anonymous": false,
      "inputs": [
        {
          "indexed": true,
          "internalType": "bytes32",
          "name": "role",
          "type": "bytes32"
        },
        {
          "indexed": true,
          "internalType": "address",
          "name": "account",
          "type": "address"
        },
        {
          "indexed": true,
          "internalType": "address",
          "name": "sender",
          "type": "address"
        }
      ],
      "name": "RoleRevoked",
      "type": "event"
    },
    {
      "anonymous": false,
      "inputs": [
        {
          "indexed": true,
          "internalType": "address",
          "name": "implementation",
          "type": "address"
        }
      ],
      "name": "Upgraded",
      "type": "event"
    },
    {
      "anonymous": false,
      "inputs": [
        {
          "indexed": true,
          "internalType": "string",
          "name": "blockId",
          "type": "string"
        },
        {
          "indexed": false,
          "internalType": "string",
          "name": "previousBlock",
          "type": "string"
        },
        {
          "indexed": true,
          "internalType": "address",
          "name": "agent",
          "type": "address"
        },
        {
          "indexed": false,
          "internalType": "bytes32",
          "name": "contentHash",
          "type": "bytes32"
        }
      ],
      "name": "YAMOBlockSubmitted",
      "type": "event"
    },
    {
      "anonymous": false,
      "inputs": [
        {
          "indexed": true,
          "internalType": "string",
          "name": "blockId",
          "type": "string"
        },
        {
          "indexed": false,
          "internalType": "bytes32",
          "name": "contentHash",
          "type": "bytes32"
        },
        {
          "indexed": false,
          "internalType": "string",
          "name": "ipfsCID",
          "type": "string"
        }
      ],
      "name": "YAMOBlockSubmittedV2",
      "type": "event"
    },
    {
      "inputs": [],
      "name": "AGENT_ROLE",
      "outputs": [
        {
          "internalType": "bytes32",
          "name": "",
          "type": "bytes32"
        }
      ],
      "stateMutability": "view",
      "type": "function"
    },
    {
      "inputs": [],
      "name": "DEFAULT_ADMIN_ROLE",
      "outputs": [
        {
          "internalType": "bytes32",
          "name": "",
          "type": "bytes32"
        }
      ],
      "stateMutability": "view",
      "type": "function"
    },
    {
      "inputs": [],
      "name": "UPGRADER_ROLE",
      "outputs": [
        {
          "internalType": "bytes32",
          "name": "",
          "type": "bytes32"
        }
      ],
      "stateMutability": "view",
      "type": "function"
    },
    {
      "inputs": [],
      "name": "UPGRADE_INTERFACE_VERSION",
      "outputs": [
        {
          "internalType": "string",
          "name": "",
          "type": "string"
        }
      ],
      "stateMutability": "view",
      "type": "function"
    },
    {
      "inputs": [
        {
          "internalType": "string",
          "name": "",
          "type": "string"
        }
      ],
      "name": "blockCIDs",
      "outputs": [
        {
          "internalType": "string",
          "name": "",
          "type": "string"
        }
      ],
      "stateMutability": "view",
      "type": "function"
    },
    {
      "inputs": [
        {
          "internalType": "string",
          "name": "",
          "type": "string"
        }
      ],
      "name": "blockExists",
      "outputs": [
        {
          "internalType": "bool",
          "name": "",
          "type": "bool"
        }
      ],
      "stateMutability": "view",
      "type": "function"
    },
    {
      "inputs": [
        {
          "internalType": "string",
          "name": "",
          "type": "string"
        }
      ],
      "name": "blocks",
      "outputs": [
        {
          "internalType": "string",
          "name": "blockId",
          "type": "string"
        },
        {
          "internalType": "string",
          "name": "previousBlock",
          "type": "string"
        },
        {
          "internalType": "address",
          "name": "agentAddress",
          "type": "address"
        },
        {
          "internalType": "bytes32",
          "name": "contentHash",
          "type": "bytes32"
        },
        {
          "internalType": "uint256",
          "name": "timestamp",
          "type": "uint256"
        },
        {
          "internalType": "string",
          "name": "consensusType",
          "type": "string"
        },
        {
          "internalType": "string",
          "name": "ledger",
          "type": "string"
        }
      ],
      "stateMutability": "view",
      "type": "function"
    },
    {
      "inputs": [
        {
          "internalType": "bytes32",
          "name": "role",
          "type": "bytes32"
        }
      ],
      "name": "getRoleAdmin",
      "outputs": [
        {
          "internalType": "bytes32",
          "name": "",
          "type": "bytes32"
        }
      ],
      "stateMutability": "view",
      "type": "function"
    },
    {
      "inputs": [
        {
          "internalType": "bytes32",
          "name": "role",
          "type": "bytes32"
        },
        {
          "internalType": "address",
          "name": "account",
          "type": "address"
        }
      ],
      "name": "grantRole",
      "outputs": [],
      "stateMutability": "nonpayable",
      "type": "function"
    },
    {
      "inputs": [
        {
          "internalType": "bytes32",
          "name": "role",
          "type": "bytes32"
        },
        {
          "internalType": "address",
          "name": "account",
          "type": "address"
        }
      ],
      "name": "hasRole",
      "outputs": [
        {
          "internalType": "bool",
          "name": "",
          "type": "bool"
        }
      ],
      "stateMutability": "view",
      "type": "function"
    },
    {
      "inputs": [
        {
          "internalType": "address",
          "name": "defaultAdmin",
          "type": "address"
        }
      ],
      "name": "initialize",
      "outputs": [],
      "stateMutability": "nonpayable",
      "type": "function"
    },
    {
      "inputs": [],
      "name": "latestBlockHash",
      "outputs": [
        {
          "internalType": "bytes32",
          "name": "",
          "type": "bytes32"
        }
      ],
      "stateMutability": "view",
      "type": "function"
    },
    {
      "inputs": [],
      "name": "proxiableUUID",
      "outputs": [
        {
          "internalType": "bytes32",
          "name": "",
          "type": "bytes32"
        }
      ],
      "stateMutability": "view",
      "type": "function"
    },
    {
      "inputs": [
        {
          "internalType": "bytes32",
          "name": "role",
          "type": "bytes32"
        },
        {
          "internalType": "address",
          "name": "callerConfirmation",
          "type": "address"
        }
      ],
      "name": "renounceRole",
      "outputs": [],
      "stateMutability": "nonpayable",
      "type": "function"
    },
    {
      "inputs": [
        {
          "internalType": "bytes32",
          "name": "role",
          "type": "bytes32"
        },
        {
          "internalType": "address",
          "name": "account",
          "type": "address"
        }
      ],
      "name": "revokeRole",
      "outputs": [],
      "stateMutability": "nonpayable",
      "type": "function"
    },
    {
      "inputs": [
        {
          "internalType": "string",
          "name": "blockId",
          "type": "string"
        },
        {
          "internalType": "string",
          "name": "previousBlock",
          "type": "string"
        },
        {
          "internalType": "bytes32",
          "name": "contentHash",
          "type": "bytes32"
        },
        {
          "internalType": "string",
          "name": "consensusType",
          "type": "string"
        },
        {
          "internalType": "string",
          "name": "ledger",
          "type": "string"
        }
      ],
      "name": "submitBlock",
      "outputs": [],
      "stateMutability": "nonpayable",
      "type": "function"
    },
    {
      "inputs": [
        {
          "internalType": "string",
          "name": "blockId",
          "type": "string"
        },
        {
          "internalType": "string",
          "name": "previousBlock",
          "type": "string"
        },
        {
          "internalType": "bytes32",
          "name": "contentHash",
          "type": "bytes32"
        },
        {
          "internalType": "string",
          "name": "consensusType",
          "type": "string"
        },
        {
          "internalType": "string",
          "name": "ledger",
          "type": "string"
        },
        {
          "internalType": "string",
          "name": "ipfsCID",
          "type": "string"
        }
      ],
      "name": "submitBlockV2",
      "outputs": [],
      "stateMutability": "nonpayable",
      "type": "function"
    },
    {
      "inputs": [
        {
          "internalType": "bytes4",
          "name": "interfaceId",
          "type": "bytes4"
        }
      ],
      "name": "supportsInterface",
      "outputs": [
        {
          "internalType": "bool",
          "name": "",
          "type": "bool"
        }
      ],
      "stateMutability": "view",
      "type": "function"
    },
    {
      "inputs": [
        {
          "internalType": "address",
          "name": "newImplementation",
          "type": "address"
        },
        {
          "internalType": "bytes",
          "name": "data",
          "type": "bytes"
        }
      ],
      "name": "upgradeToAndCall",
      "outputs": [],
      "stateMutability": "payable",
      "type": "function"
    },
    {
      "inputs": [
        {
          "internalType": "string",
          "name": "blockId",
          "type": "string"
        },
        {
          "internalType": "bytes32",
          "name": "contentHash",
          "type": "bytes32"
        }
      ],
      "name": "verifyBlock",
      "outputs": [
        {
          "internalType": "bool",
          "name": "",
          "type": "bool"
        }
      ],
      "stateMutability": "view",
      "type": "function"
    }
  ],
  "bytecode": "0x60a06040523073ffffffffffffffffffffffffffffffffffffffff1660809073ffffffffffffffffffffffffffffffffffffffff168152503480156200004457600080fd5b50620000556200005b60201b60201c565b620001ee565b60006200006d6200016560201b60201c565b90508060000160089054906101000a900460ff1615620000b9576040517ff92ee8a900000000000000000000000000000000000000000000000000000000815260040160405180910390fd5b67ffffffffffffffff80168160000160009054906101000a900467ffffffffffffffff1667ffffffffffffffff1614620001625767ffffffffffffffff8160000160006101000a81548167ffffffffffffffff021916908367ffffffffffffffff1602179055507fc7f505b2f371ae2175ee4913f4499e1f2633a7b5936321eed1cdaeb6115181d267ffffffffffffffff604051620001599190620001d1565b60405180910390a15b50565b600080620001786200018160201b60201c565b90508091505090565b60007ff0c57e16840df040f15088dc2f81fe391c3923bec73e23a9662efc9c229c6a0060001b905090565b600067ffffffffffffffff82169050919050565b620001cb81620001ac565b82525050565b6000602082019050620001e86000830184620001c0565b92915050565b608051612af062000218600039600081816115ab0152818161160001526117de0152612af06000f3fe60806040526004361061011f5760003560e01c806391d14854116100a0578063d547741f11610064578063d547741f146103de578063d6f8041514610407578063dddc481d14610444578063f72c0d8b14610481578063f8b5b7f6146104ac5761011f565b806391d14854146102df578063a217fddf1461031c578063ad3cb1cc14610347578063b312ded314610372578063c4d66de8146103b55761011f565b806336568abe116100e757806336568abe1461021b5780634f1ef2861461024457806352d1902d146102605780636c4f6ba91461028b5780638257fcca146102b65761011f565b806301ffc9a71461012457806314fd2e3e1461016157806322459e181461018a578063248a9ca3146101b55780632f2ff15d146101f2575b600080fd5b34801561013057600080fd5b5061014b60048036038101906101469190611d08565b6104e9565b6040516101589190611d50565b60405180910390f35b34801561016d57600080fd5b5061018860048036038101906101839190611ee7565b610563565b005b34801561019657600080fd5b5061019f61083d565b6040516101ac919061200f565b60405180910390f35b3480156101c157600080fd5b506101dc60048036038101906101d7919061202a565b610861565b6040516101e9919061200f565b60405180910390f35b3480156101fe57600080fd5b50610219600480360381019061021491906120b5565b61088f565b005b34801561022757600080fd5b50610242600480360381019061023d91906120b5565b6108b1565b005b61025e60048036038101906102599190612196565b61092c565b005b34801561026c57600080fd5b5061027561094b565b604051610282919061200f565b60405180910390f35b34801561029757600080fd5b506102a061097e565b6040516102ad919061200f565b60405180910390f35b3480156102c257600080fd5b506102dd60048036038101906102d891906121f2565b610984565b005b3480156102eb57600080fd5b50610306600480360381019061030191906120b5565b610be2565b6040516103139190611d50565b60405180910390f35b34801561032857600080fd5b50610331610c5b565b60405161033e919061200f565b60405180910390f35b34801561035357600080fd5b5061035c610c62565b604051610369919061235c565b60405180910390f35b34801561037e57600080fd5b506103996004803603810190610394919061237e565b610c9b565b6040516103ac97969594939291906123ef565b60405180910390f35b3480156103c157600080fd5b506103dc60048036038101906103d7919061247a565b610f33565b005b3480156103ea57600080fd5b50610405600480360381019061040091906120b5565b61112d565b005b34801561041357600080fd5b5061042e6004803603810190610429919061237e565b61114f565b60405161043b919061235c565b60405180910390f35b34801561045057600080fd5b5061046b600480360381019061046691906124a7565b611205565b6040516104789190611d50565b60405180910390f35b34801561048d57600080fd5b5061049661129e565b6040516104a3919061200f565b60405180910390f35b3480156104b857600080fd5b506104d360048036038101906104ce919061237e565b6112c2565b6040516104e09190611d50565b60405180910390f35b60007f7965db0b000000000000000000000000000000000000000000000000000000007bffffffffffffffffffffffffffffffffffffffffffffffffffffffff1916827bffffffffffffffffffffffffffffffffffffffffffffffffffffffff1916148061055c575061055b826112f8565b5b9050919050565b7fcab5a0bfe0b79d2c4b1c2e02599fa044d115b7511f9659307cb427695096770961058d81611362565b60018760405161059d919061253f565b908152602001604051809103902060009054906101000a900460ff16156105f9576040517f08c379a00000000000000000000000000000000000000000000000000000000081526004016105f0906125a2565b60405180910390fd5b6040518060e001604052808881526020018781526020013373ffffffffffffffffffffffffffffffffffffffff16815260200186815260200142815260200185815260200184815250600088604051610652919061253f565b9081526020016040518091039020600082015181600001908161067591906127ce565b50602082015181600101908161068b91906127ce565b5060408201518160020160006101000a81548173ffffffffffffffffffffffffffffffffffffffff021916908373ffffffffffffffffffffffffffffffffffffffff160217905550606082015181600301556080820151816004015560a08201518160050190816106fc91906127ce565b5060c082015181600601908161071291906127ce565b5090505060018088604051610727919061253f565b908152602001604051809103902060006101000a81548160ff0219169083151502179055508160038860405161075d919061253f565b9081526020016040518091039020908161077791906127ce565b50846002819055503373ffffffffffffffffffffffffffffffffffffffff16876040516107a4919061253f565b60405180910390207fbeb584683cd5accbe9cbd3a5eaeec08b8908660194089e7c33a8dc2191777d8a88886040516107dd9291906128a0565b60405180910390a3866040516107f3919061253f565b60405180910390207f891315b5c60fd4ca63318f4d9274c618853e51ebe4ed76bfa3ebc6969473a0a0868460405161082c9291906128d0565b60405180910390a250505050505050565b7fcab5a0bfe0b79d2c4b1c2e02599fa044d115b7511f9659307cb427695096770981565b60008061086c611376565b905080600001600084815260200190815260200160002060010154915050919050565b61089882610861565b6108a181611362565b6108ab838361139e565b50505050565b6108b961149f565b73ffffffffffffffffffffffffffffffffffffffff168173ffffffffffffffffffffffffffffffffffffffff161461091d576040517f6697b23200000000000000000000000000000000000000000000000000000000815260040160405180910390fd5b61092782826114a7565b505050565b6109346115a9565b61093d8261168f565b61094782826116bd565b5050565b60006109556117dc565b7f360894a13ba1a3210667c828492db98dca3e2076cc3735a920a3ca505d382bbc60001b905090565b60025481565b7fcab5a0bfe0b79d2c4b1c2e02599fa044d115b7511f9659307cb42769509677096109ae81611362565b6001866040516109be919061253f565b908152602001604051809103902060009054906101000a900460ff1615610a1a576040517f08c379a0000000000000000000000000000000000000000000000000000000008152600401610a11906125a2565b60405180910390fd5b6040518060e001604052808781526020018681526020013373ffffffffffffffffffffffffffffffffffffffff16815260200185815260200142815260200184815260200183815250600087604051610a73919061253f565b90815260200160405180910390206000820151816000019081610a9691906127ce565b506020820151816001019081610aac91906127ce565b5060408201518160020160006101000a81548173ffffffffffffffffffffffffffffffffffffffff021916908373ffffffffffffffffffffffffffffffffffffffff160217905550606082015181600301556080820151816004015560a0820151816005019081610b1d91906127ce565b5060c0820151816006019081610b3391906127ce565b5090505060018087604051610b48919061253f565b908152602001604051809103902060006101000a81548160ff021916908315150217905550836002819055503373ffffffffffffffffffffffffffffffffffffffff1686604051610b99919061253f565b60405180910390207fbeb584683cd5accbe9cbd3a5eaeec08b8908660194089e7c33a8dc2191777d8a8787604051610bd29291906128a0565b60405180910390a3505050505050565b600080610bed611376565b905080600001600085815260200190815260200160002060000160008473ffffffffffffffffffffffffffffffffffffffff1673ffffffffffffffffffffffffffffffffffffffff16815260200190815260200160002060009054906101000a900460ff1691505092915050565b6000801b81565b6040518060400160405280600581526020017f352e302e3000000000000000000000000000000000000000000000000000000081525081565b600081805160208101820180518482526020830160208501208183528095505050505050600091509050806000018054610cd4906125f1565b80601f0160208091040260200160405190810160405280929190818152602001828054610d00906125f1565b8015610d4d5780601f10610d2257610100808354040283529160200191610d4d565b820191906000526020600020905b815481529060010190602001808311610d3057829003601f168201915b505050505090806001018054610d62906125f1565b80601f0160208091040260200160405190810160405280929190818152602001828054610d8e906125f1565b8015610ddb5780601f10610db057610100808354040283529160200191610ddb565b820191906000526020600020905b815481529060010190602001808311610dbe57829003601f168201915b5050505050908060020160009054906101000a900473ffffffffffffffffffffffffffffffffffffffff1690806003015490806004015490806005018054610e22906125f1565b80601f0160208091040260200160405190810160405280929190818152602001828054610e4e906125f1565b8015610e9b5780601f10610e7057610100808354040283529160200191610e9b565b820191906000526020600020905b815481529060010190602001808311610e7e57829003601f168201915b505050505090806006018054610eb0906125f1565b80601f0160208091040260200160405190810160405280929190818152602001828054610edc906125f1565b8015610f295780601f10610efe57610100808354040283529160200191610f29565b820191906000526020600020905b815481529060010190602001808311610f0c57829003601f168201915b5050505050905087565b6000610f3d611863565b905060008160000160089054906101000a900460ff1615905060008260000160009054906101000a900467ffffffffffffffff1690506000808267ffffffffffffffff16148015610f8b5750825b9050600060018367ffffffffffffffff16148015610fc0575060003073ffffffffffffffffffffffffffffffffffffffff163b145b905081158015610fce575080155b15611005576040517ff92ee8a900000000000000000000000000000000000000000000000000000000815260040160405180910390fd5b60018560000160006101000a81548167ffffffffffffffff021916908367ffffffffffffffff16021790555083156110555760018560000160086101000a81548160ff0219169083151502179055505b61105d611877565b611065611881565b6110726000801b8761139e565b5061109d7fcab5a0bfe0b79d2c4b1c2e02599fa044d115b7511f9659307cb42769509677098761139e565b506110c87f189ab7a9244df0848122154315af71fe140f3db0fe014031783b0946b8c9d2e38761139e565b5083156111255760008560000160086101000a81548160ff0219169083151502179055507fc7f505b2f371ae2175ee4913f4499e1f2633a7b5936321eed1cdaeb6115181d2600160405161111c919061294f565b60405180910390a15b505050505050565b61113682610861565b61113f81611362565b61114983836114a7565b50505050565b6003818051602081018201805184825260208301602085012081835280955050505050506000915090508054611184906125f1565b80601f01602080910402602001604051908101604052809291908181526020018280546111b0906125f1565b80156111fd5780601f106111d2576101008083540402835291602001916111fd565b820191906000526020600020905b8154815290600101906020018083116111e057829003601f168201915b505050505081565b6000600183604051611217919061253f565b908152602001604051809103902060009054906101000a900460ff16611272576040517f08c379a0000000000000000000000000000000000000000000000000000000008152600401611269906129b6565b60405180910390fd5b81600084604051611283919061253f565b90815260200160405180910390206003015414905092915050565b7f189ab7a9244df0848122154315af71fe140f3db0fe014031783b0946b8c9d2e381565b6001818051602081018201805184825260208301602085012081835280955050505050506000915054906101000a900460ff1681565b60007f01ffc9a7000000000000000000000000000000000000000000000000000000007bffffffffffffffffffffffffffffffffffffffffffffffffffffffff1916827bffffffffffffffffffffffffffffffffffffffffffffffffffffffff1916149050919050565b6113738161136e61149f565b61188b565b50565b60007f02dd7bc7dec4dceedda775e58dd541e08a116c6c53815c0bd028192f7b626800905090565b6000806113a9611376565b90506113b58484610be2565b61149357600181600001600086815260200190815260200160002060000160008573ffffffffffffffffffffffffffffffffffffffff1673ffffffffffffffffffffffffffffffffffffffff16815260200190815260200160002060006101000a81548160ff02191690831515021790555061142f61149f565b73ffffffffffffffffffffffffffffffffffffffff168373ffffffffffffffffffffffffffffffffffffffff16857f2f8788117e7eff1d82e926ec794901d17c78024a50270940304540a733656f0d60405160405180910390a46001915050611499565b60009150505b92915050565b600033905090565b6000806114b2611376565b90506114be8484610be2565b1561159d57600081600001600086815260200190815260200160002060000160008573ffffffffffffffffffffffffffffffffffffffff1673ffffffffffffffffffffffffffffffffffffffff16815260200190815260200160002060006101000a81548160ff02191690831515021790555061153961149f565b73ffffffffffffffffffffffffffffffffffffffff168373ffffffffffffffffffffffffffffffffffffffff16857ff6391f5c32d9c69d2a47ea670b442974b53935d1edc7fd64eb21e047a839171b60405160405180910390a460019150506115a3565b60009150505b92915050565b7f000000000000000000000000000000000000000000000000000000000000000073ffffffffffffffffffffffffffffffffffffffff163073ffffffffffffffffffffffffffffffffffffffff16148061165657507f000000000000000000000000000000000000000000000000000000000000000073ffffffffffffffffffffffffffffffffffffffff1661163d6118dc565b73ffffffffffffffffffffffffffffffffffffffff1614155b1561168d576040517fe07c8dba00000000000000000000000000000000000000000000000000000000815260040160405180910390fd5b565b7f189ab7a9244df0848122154315af71fe140f3db0fe014031783b0946b8c9d2e36116b981611362565b5050565b8173ffffffffffffffffffffffffffffffffffffffff166352d1902d6040518163ffffffff1660e01b8152600401602060405180830381865afa92505050801561172557506040513d601f19601f8201168201806040525081019061172291906129eb565b60015b61176657816040517f4c9c8ce300000000000000000000000000000000000000000000000000000000815260040161175d9190612a18565b60405180910390fd5b7f360894a13ba1a3210667c828492db98dca3e2076cc3735a920a3ca505d382bbc60001b81146117cd57806040517faa1d49a40000000000000000000000000000000000000000000000000000000081526004016117c4919061200f565b60405180910390fd5b6117d78383611933565b505050565b7f000000000000000000000000000000000000000000000000000000000000000073ffffffffffffffffffffffffffffffffffffffff163073ffffffffffffffffffffffffffffffffffffffff1614611861576040517fe07c8dba00000000000000000000000000000000000000000000000000000000815260040160405180910390fd5b565b60008061186e6119a6565b90508091505090565b61187f6119d1565b565b6118896119d1565b565b6118958282610be2565b6118d85780826040517fe2517d3f0000000000000000000000000000000000000000000000000000000081526004016118cf929190612a33565b60405180910390fd5b5050565b600061190a7f360894a13ba1a3210667c828492db98dca3e2076cc3735a920a3ca505d382bbc60001b611a11565b60000160009054906101000a900473ffffffffffffffffffffffffffffffffffffffff16905090565b61193c82611a1b565b8173ffffffffffffffffffffffffffffffffffffffff167fbc7cd75a20ee27fd9adebab32041f755214dbc6bffa90cc0225b39da2e5c2d3b60405160405180910390a2600081511115611999576119938282611ae8565b506119a2565b6119a1611b6c565b5b5050565b60007ff0c57e16840df040f15088dc2f81fe391c3923bec73e23a9662efc9c229c6a0060001b905090565b6119d9611ba9565b611a0f576040517fd7e6bcf800000000000000000000000000000000000000000000000000000000815260040160405180910390fd5b565b6000819050919050565b60008173ffffffffffffffffffffffffffffffffffffffff163b03611a7757806040517f4c9c8ce3000000000000000000000000000000000000000000000000000000008152600401611a6e9190612a18565b60405180910390fd5b80611aa47f360894a13ba1a3210667c828492db98dca3e2076cc3735a920a3ca505d382bbc60001b611a11565b60000160006101000a81548173ffffffffffffffffffffffffffffffffffffffff021916908373ffffffffffffffffffffffffffffffffffffffff16021790555050565b60606000808473ffffffffffffffffffffffffffffffffffffffff1684604051611b129190612aa3565b600060405180830381855af49150503d8060008114611b4d576040519150601f19603f3d011682016040523d82523d6000602084013e611b52565b606091505b5091509150611b62858383611bc9565b9250505092915050565b6000341115611ba7576040517fb398979f00000000000000000000000000000000000000000000000000000000815260040160405180910390fd5b565b6000611bb3611863565b60000160089054906101000a900460ff16905090565b606082611bde57611bd982611c58565b611c50565b60008251148015611c06575060008473ffffffffffffffffffffffffffffffffffffffff163b145b15611c4857836040517f9996b315000000000000000000000000000000000000000000000000000000008152600401611c3f9190612a18565b60405180910390fd5b819050611c51565b5b9392505050565b600081511115611c6a57805160208201fd5b6040517fd6bda27500000000000000000000000000000000000000000000000000000000815260040160405180910390fd5b6000604051905090565b600080fd5b600080fd5b60007fffffffff0000000000000000000000000000000000000000000000000000000082169050919050565b611ce581611cb0565b8114611cf057600080fd5b50565b600081359050611d0281611cdc565b92915050565b600060208284031215611d1e57611d1d611ca6565b5b6000611d2c84828501611cf3565b91505092915050565b60008115159050919050565b611d4a81611d35565b82525050565b6000602082019050611d656000830184611d41565b92915050565b600080fd5b600080fd5b6000601f19601f8301169050919050565b7f4e487b7100000000000000000000000000000000000000000000000000000000600052604160045260246000fd5b611dbe82611d75565b810181811067ffffffffffffffff82111715611ddd57611ddc611d86565b5b80604052505050565b6000611df0611c9c565b9050611dfc8282611db5565b919050565b600067ffffffffffffffff821115611e1c57611e1b611d86565b5b611e2582611d75565b9050602081019050919050565b82818337600083830152505050565b6000611e54611e4f84611e01565b611de6565b905082815260208101848484011115611e7057611e6f611d70565b5b611e7b848285611e32565b509392505050565b600082601f830112611e9857611e97611d6b565b5b8135611ea8848260208601611e41565b91505092915050565b6000819050919050565b611ec481611eb1565b8114611ecf57600080fd5b50565b600081359050611ee181611ebb565b92915050565b60008060008060008060c08789031215611f0457611f03611ca6565b5b600087013567ffffffffffffffff811115611f2257611f21611cab565b5b611f2e89828a01611e83565b965050602087013567ffffffffffffffff811115611f4f57611f4e611cab565b5b611f5b89828a01611e83565b9550506040611f6c89828a01611ed2565b945050606087013567ffffffffffffffff811115611f8d57611f8c611cab565b5b611f9989828a01611e83565b935050608087013567ffffffffffffffff811115611fba57611fb9611cab565b5b611fc689828a01611e83565b92505060a087013567ffffffffffffffff811115611fe757611fe6611cab565b5b611ff389828a01611e83565b9150509295509295509295565b61200981611eb1565b82525050565b60006020820190506120246000830184612000565b92915050565b6000602082840312156120405761203f611ca6565b5b600061204e84828501611ed2565b91505092915050565b600073ffffffffffffffffffffffffffffffffffffffff82169050919050565b600061208282612057565b9050919050565b61209281612077565b811461209d57600080fd5b50565b6000813590506120af81612089565b92915050565b600080604083850312156120cc576120cb611ca6565b5b60006120da85828601611ed2565b92505060206120eb858286016120a0565b9150509250929050565b600067ffffffffffffffff8211156121105761210f611d86565b5b61211982611d75565b9050602081019050919050565b6000612139612134846120f5565b611de6565b90508281526020810184848401111561215557612154611d70565b5b612160848285611e32565b509392505050565b600082601f83011261217d5761217c611d6b565b5b813561218d848260208601612126565b91505092915050565b600080604083850312156121ad576121ac611ca6565b5b60006121bb858286016120a0565b925050602083013567ffffffffffffffff8111156121dc576121db611cab565b5b6121e885828601612168565b9150509250929050565b600080600080600060a0868803121561220e5761220d611ca6565b5b600086013567ffffffffffffffff81111561222c5761222b611cab565b5b61223888828901611e83565b955050602086013567ffffffffffffffff81111561225957612258611cab565b5b61226588828901611e83565b945050604061227688828901611ed2565b935050606086013567ffffffffffffffff81111561229757612296611cab565b5b6122a388828901611e83565b925050608086013567ffffffffffffffff8111156122c4576122c3611cab565b5b6122d088828901611e83565b9150509295509295909350565b600081519050919050565b600082825260208201905092915050565b60005b838110156123175780820151818401526020810190506122fc565b60008484015250505050565b600061232e826122dd565b61233881856122e8565b93506123488185602086016122f9565b61235181611d75565b840191505092915050565b600060208201905081810360008301526123768184612323565b905092915050565b60006020828403121561239457612393611ca6565b5b600082013567ffffffffffffffff8111156123b2576123b1611cab565b5b6123be84828501611e83565b91505092915050565b6123d081612077565b82525050565b6000819050919050565b6123e9816123d6565b82525050565b600060e0820190508181036000830152612409818a612323565b9050818103602083015261241d8189612323565b905061242c60408301886123c7565b6124396060830187612000565b61244660808301866123e0565b81810360a08301526124588185612323565b905081810360c083015261246c8184612323565b905098975050505050505050565b6000602082840312156124905761248f611ca6565b5b600061249e848285016120a0565b91505092915050565b600080604083850312156124be576124bd611ca6565b5b600083013567ffffffffffffffff8111156124dc576124db611cab565b5b6124e885828601611e83565b92505060206124f985828601611ed2565b9150509250929050565b600081905092915050565b6000612519826122dd565b6125238185612503565b93506125338185602086016122f9565b80840191505092915050565b600061254b828461250e565b915081905092915050565b7f426c6f636b20616c726561647920657869737473000000000000000000000000600082015250565b600061258c6014836122e8565b915061259782612556565b602082019050919050565b600060208201905081810360008301526125bb8161257f565b9050919050565b7f4e487b7100000000000000000000000000000000000000000000000000000000600052602260045260246000fd5b6000600282049050600182168061260957607f821691505b60208210810361261c5761261b6125c2565b5b50919050565b60008190508160005260206000209050919050565b60006020601f8301049050919050565b600082821b905092915050565b6000600883026126847fffffffffffffffffffffffffffffffffffffffffffffffffffffffffffffffff82612647565b61268e8683612647565b95508019841693508086168417925050509392505050565b6000819050919050565b60006126cb6126c66126c1846123d6565b6126a6565b6123d6565b9050919050565b6000819050919050565b6126e5836126b0565b6126f96126f1826126d2565b848454612654565b825550505050565b600090565b61270e612701565b6127198184846126dc565b505050565b5b8181101561273d57612732600082612706565b60018101905061271f565b5050565b601f8211156127825761275381612622565b61275c84612637565b8101602085101561276b578190505b61277f61277785612637565b83018261271e565b50505b505050565b600082821c905092915050565b60006127a560001984600802612787565b1980831691505092915050565b60006127be8383612794565b9150826002028217905092915050565b6127d7826122dd565b67ffffffffffffffff8111156127f0576127ef611d86565b5b6127fa82546125f1565b612805828285612741565b600060209050601f8311600181146128385760008415612826578287015190505b61283085826127b2565b865550612898565b601f19841661284686612622565b60005b8281101561286e57848901518255600182019150602085019450602081019050612849565b8683101561288b5784890151612887601f891682612794565b8355505b6001600288020188555050505b505050505050565b600060408201905081810360008301526128ba8185612323565b90506128c96020830184612000565b9392505050565b60006040820190506128e56000830185612000565b81810360208301526128f78184612323565b90509392505050565b6000819050919050565b600067ffffffffffffffff82169050919050565b600061293961293461292f84612900565b6126a6565b61290a565b9050919050565b6129498161291e565b82525050565b60006020820190506129646000830184612940565b92915050565b7f426c6f636b20646f6573206e6f74206578697374000000000000000000000000600082015250565b60006129a06014836122e8565b91506129ab8261296a565b602082019050919050565b600060208201905081810360008301526129cf81612993565b9050919050565b6000815190506129e581611ebb565b92915050565b600060208284031215612a0157612a00611ca6565b5b6000612a0f848285016129d6565b91505092915050565b6000602082019050612a2d60008301846123c7565b92915050565b6000604082019050612a4860008301856123c7565b612a556020830184612000565b9392505050565b600081519050919050565b600081905092915050565b6000612a7d82612a5c565b612a878185612a67565b9350612a978185602086016122f9565b80840191505092915050565b6000612aaf8284612a72565b91508190509291505056fea264697066735822122042bcbe4b261624155e88845256ea04adc2e2df29141f06f7be2bbc360635d9f964736f6c63430008160033",
  "linkReferences": {},
  "deployedLinkReferences": {}
}