{
  "_format": "hh-sol-artifact-1",
  "contractName": "YAMORegistryV2",
  "sourceName": "contracts/YAMORegistryV2.sol",
  "abi": [
    {
      "inputs": [],
      "name": "AccessControlBadConfirmation",
      "type": "error"
    },
    {
      "inputs": [
        {
          "internalType": "address",
          "name": "account",
          "type": "address"
        },
        {
          "internalType": "bytes32",
          "name": "neededRole",
          "type": "bytes32"
        }
      ],
      "name": "AccessControlUnauthorizedAccount",
      "type": "error"
    },
    {
      "inputs": [
        {
          "internalType": "address",
          "name": "target",
          "type": "address"
        }
      ],
      "name": "AddressEmptyCode",
      "type": "error"
    },
    {
      "inputs": [
        {
          "internalType": "address",
          "name": "implementation",
          "type": "address"
        }
      ],
      "name": "ERC1967InvalidImplementation",
      "type": "error"
    },
    {
      "inputs": [],
      "name": "ERC1967NonPayable",
      "type": "error"
    },
    {
      "inputs": [],
      "name": "FailedCall",
      "type": "error"
    },
    {
      "inputs": [],
      "name": "InvalidInitialization",
      "type": "error"
    },
    {
      "inputs": [],
      "name": "NotInitializing",
      "type": "error"
    },
    {
      "inputs": [],
      "name": "UUPSUnauthorizedCallContext",
      "type": "error"
    },
    {
      "inputs": [
        {
          "internalType": "bytes32",
          "name": "slot",
          "type": "bytes32"
        }
      ],
      "name": "UUPSUnsupportedProxiableUUID",
      "type": "error"
    },
    {
      "anonymous": false,
      "inputs": [
        {
          "indexed": false,
          "internalType": "uint64",
          "name": "version",
          "type": "uint64"
        }
      ],
      "name": "Initialized",
      "type": "event"
    },
    {
      "anonymous": false,
      "inputs": [
        {
          "indexed": true,
          "internalType": "bytes32",
          "name": "role",
          "type": "bytes32"
        },
        {
          "indexed": true,
          "internalType": "bytes32",
          "name": "previousAdminRole",
          "type": "bytes32"
        },
        {
          "indexed": true,
          "internalType": "bytes32",
          "name": "newAdminRole",
          "type": "bytes32"
        }
      ],
      "name": "RoleAdminChanged",
      "type": "event"
    },
    {
      "anonymous": false,
      "inputs": [
        {
          "indexed": true,
          "internalType": "bytes32",
          "name": "role",
          "type": "bytes32"
        },
        {
          "indexed": true,
          "internalType": "address",
          "name": "account",
          "type": "address"
        },
        {
          "indexed": true,
          "internalType": "address",
          "name": "sender",
          "type": "address"
        }
      ],
      "name": "RoleGranted",
      "type": "event"
    },
    {
      "anonymous": false,
      "inputs": [
        {
          "indexed": true,
          "internalType": "bytes32",
          "name": "role",
          "type": "bytes32"
        },
        {
          "indexed": true,
          "internalType": "address",
          "name": "account",
          "type": "address"
        },
        {
          "indexed": true,
          "internalType": "address",
          "name": "sender",
          "type": "address"
        }
      ],
      "name": "RoleRevoked",
      "type": "event"
    },
    {
      "anonymous": false,
      "inputs": [
        {
          "indexed": true,
          "internalType": "address",
          "name": "implementation",
          "type": "address"
        }
      ],
      "name": "Upgraded",
      "type": "event"
    },
    {
      "anonymous": false,
      "inputs": [
        {
          "indexed": true,
          "internalType": "string",
          "name": "blockId",
          "type": "string"
        },
        {
          "indexed": false,
          "internalType": "string",
          "name": "previousBlock",
          "type": "string"
        },
        {
          "indexed": true,
          "internalType": "address",
          "name": "agent",
          "type": "address"
        },
        {
          "indexed": false,
          "internalType": "bytes32",
          "name": "contentHash",
          "type": "bytes32"
        }
      ],
      "name": "YAMOBlockSubmitted",
      "type": "event"
    },
    {
      "anonymous": false,
      "inputs": [
        {
          "indexed": true,
          "internalType": "string",
          "name": "blockId",
          "type": "string"
        },
        {
          "indexed": false,
          "internalType": "bytes32",
          "name": "contentHash",
          "type": "bytes32"
        },
        {
          "indexed": false,
          "internalType": "string",
          "name": "ipfsCID",
          "type": "string"
        }
      ],
      "name": "YAMOBlockSubmittedV2",
      "type": "event"
    },
    {
      "inputs": [],
      "name": "AGENT_ROLE",
      "outputs": [
        {
          "internalType": "bytes32",
          "name": "",
          "type": "bytes32"
        }
      ],
      "stateMutability": "view",
      "type": "function"
    },
    {
      "inputs": [],
      "name": "DEFAULT_ADMIN_ROLE",
      "outputs": [
        {
          "internalType": "bytes32",
          "name": "",
          "type": "bytes32"
        }
      ],
      "stateMutability": "view",
      "type": "function"
    },
    {
      "inputs": [],
      "name": "UPGRADER_ROLE",
      "outputs": [
        {
          "internalType": "bytes32",
          "name": "",
          "type": "bytes32"
        }
      ],
      "stateMutability": "view",
      "type": "function"
    },
    {
      "inputs": [],
      "name": "UPGRADE_INTERFACE_VERSION",
      "outputs": [
        {
          "internalType": "string",
          "name": "",
          "type": "string"
        }
      ],
      "stateMutability": "view",
      "type": "function"
    },
    {
      "inputs": [
        {
          "internalType": "string",
          "name": "",
          "type": "string"
        }
      ],
      "name": "blockCIDs",
      "outputs": [
        {
          "internalType": "string",
          "name": "",
          "type": "string"
        }
      ],
      "stateMutability": "view",
      "type": "function"
    },
    {
      "inputs": [
        {
          "internalType": "string",
          "name": "",
          "type": "string"
        }
      ],
      "name": "blockExists",
      "outputs": [
        {
          "internalType": "bool",
          "name": "",
          "type": "bool"
        }
      ],
      "stateMutability": "view",
      "type": "function"
    },
    {
      "inputs": [
        {
          "internalType": "string",
          "name": "",
          "type": "string"
        }
      ],
      "name": "blocks",
      "outputs": [
        {
          "internalType": "string",
          "name": "blockId",
          "type": "string"
        },
        {
          "internalType": "string",
          "name": "previousBlock",
          "type": "string"
        },
        {
          "internalType": "address",
          "name": "agentAddress",
          "type": "address"
        },
        {
          "internalType": "bytes32",
          "name": "contentHash",
          "type": "bytes32"
        },
        {
          "internalType": "uint256",
          "name": "timestamp",
          "type": "uint256"
        },
        {
          "internalType": "string",
          "name": "consensusType",
          "type": "string"
        },
        {
          "internalType": "string",
          "name": "ledger",
          "type": "string"
        }
      ],
      "stateMutability": "view",
      "type": "function"
    },
    {
      "inputs": [
        {
          "internalType": "bytes32",
          "name": "role",
          "type": "bytes32"
        }
      ],
      "name": "getRoleAdmin",
      "outputs": [
        {
          "internalType": "bytes32",
          "name": "",
          "type": "bytes32"
        }
      ],
      "stateMutability": "view",
      "type": "function"
    },
    {
      "inputs": [
        {
          "internalType": "bytes32",
          "name": "role",
          "type": "bytes32"
        },
        {
          "internalType": "address",
          "name": "account",
          "type": "address"
        }
      ],
      "name": "grantRole",
      "outputs": [],
      "stateMutability": "nonpayable",
      "type": "function"
    },
    {
      "inputs": [
        {
          "internalType": "bytes32",
          "name": "role",
          "type": "bytes32"
        },
        {
          "internalType": "address",
          "name": "account",
          "type": "address"
        }
      ],
      "name": "hasRole",
      "outputs": [
        {
          "internalType": "bool",
          "name": "",
          "type": "bool"
        }
      ],
      "stateMutability": "view",
      "type": "function"
    },
    {
      "inputs": [
        {
          "internalType": "address",
          "name": "defaultAdmin",
          "type": "address"
        }
      ],
      "name": "initialize",
      "outputs": [],
      "stateMutability": "nonpayable",
      "type": "function"
    },
    {
      "inputs": [],
      "name": "proxiableUUID",
      "outputs": [
        {
          "internalType": "bytes32",
          "name": "",
          "type": "bytes32"
        }
      ],
      "stateMutability": "view",
      "type": "function"
    },
    {
      "inputs": [
        {
          "internalType": "bytes32",
          "name": "role",
          "type": "bytes32"
        },
        {
          "internalType": "address",
          "name": "callerConfirmation",
          "type": "address"
        }
      ],
      "name": "renounceRole",
      "outputs": [],
      "stateMutability": "nonpayable",
      "type": "function"
    },
    {
      "inputs": [
        {
          "internalType": "bytes32",
          "name": "role",
          "type": "bytes32"
        },
        {
          "internalType": "address",
          "name": "account",
          "type": "address"
        }
      ],
      "name": "revokeRole",
      "outputs": [],
      "stateMutability": "nonpayable",
      "type": "function"
    },
    {
      "inputs": [
        {
          "internalType": "string",
          "name": "blockId",
          "type": "string"
        },
        {
          "internalType": "string",
          "name": "previousBlock",
          "type": "string"
        },
        {
          "internalType": "bytes32",
          "name": "contentHash",
          "type": "bytes32"
        },
        {
          "internalType": "string",
          "name": "consensusType",
          "type": "string"
        },
        {
          "internalType": "string",
          "name": "ledger",
          "type": "string"
        }
      ],
      "name": "submitBlock",
      "outputs": [],
      "stateMutability": "nonpayable",
      "type": "function"
    },
    {
      "inputs": [
        {
          "internalType": "string",
          "name": "blockId",
          "type": "string"
        },
        {
          "internalType": "string",
          "name": "previousBlock",
          "type": "string"
        },
        {
          "internalType": "bytes32",
          "name": "contentHash",
          "type": "bytes32"
        },
        {
          "internalType": "string",
          "name": "consensusType",
          "type": "string"
        },
        {
          "internalType": "string",
          "name": "ledger",
          "type": "string"
        },
        {
          "internalType": "string",
          "name": "ipfsCID",
          "type": "string"
        }
      ],
      "name": "submitBlockV2",
      "outputs": [],
      "stateMutability": "nonpayable",
      "type": "function"
    },
    {
      "inputs": [
        {
          "internalType": "bytes4",
          "name": "interfaceId",
          "type": "bytes4"
        }
      ],
      "name": "supportsInterface",
      "outputs": [
        {
          "internalType": "bool",
          "name": "",
          "type": "bool"
        }
      ],
      "stateMutability": "view",
      "type": "function"
    },
    {
      "inputs": [
        {
          "internalType": "address",
          "name": "newImplementation",
          "type": "address"
        },
        {
          "internalType": "bytes",
          "name": "data",
          "type": "bytes"
        }
      ],
      "name": "upgradeToAndCall",
      "outputs": [],
      "stateMutability": "payable",
      "type": "function"
    },
    {
      "inputs": [
        {
          "internalType": "string",
          "name": "blockId",
          "type": "string"
        },
        {
          "internalType": "bytes32",
          "name": "contentHash",
          "type": "bytes32"
        }
      ],
      "name": "verifyBlock",
      "outputs": [
        {
          "internalType": "bool",
          "name": "",
          "type": "bool"
        }
      ],
      "stateMutability": "view",
      "type": "function"
    }
  ],
  "bytecode": "0x60a06040523073ffffffffffffffffffffffffffffffffffffffff1660809073ffffffffffffffffffffffffffffffffffffffff168152503480156200004457600080fd5b50620000556200005b60201b60201c565b620001ee565b60006200006d6200016560201b60201c565b90508060000160089054906101000a900460ff1615620000b9576040517ff92ee8a900000000000000000000000000000000000000000000000000000000815260040160405180910390fd5b67ffffffffffffffff80168160000160009054906101000a900467ffffffffffffffff1667ffffffffffffffff1614620001625767ffffffffffffffff8160000160006101000a81548167ffffffffffffffff021916908367ffffffffffffffff1602179055507fc7f505b2f371ae2175ee4913f4499e1f2633a7b5936321eed1cdaeb6115181d267ffffffffffffffff604051620001599190620001d1565b60405180910390a15b50565b600080620001786200018160201b60201c565b90508091505090565b60007ff0c57e16840df040f15088dc2f81fe391c3923bec73e23a9662efc9c229c6a0060001b905090565b600067ffffffffffffffff82169050919050565b620001cb81620001ac565b82525050565b6000602082019050620001e86000830184620001c0565b92915050565b608051612aa66200021860003960008181611561015281816115b601526117940152612aa66000f3fe6080604052600436106101145760003560e01c806391d14854116100a0578063d547741f11610064578063d547741f146103a8578063d6f80415146103d1578063dddc481d1461040e578063f72c0d8b1461044b578063f8b5b7f61461047657610114565b806391d14854146102a9578063a217fddf146102e6578063ad3cb1cc14610311578063b312ded31461033c578063c4d66de81461037f57610114565b80632f2ff15d116100e75780632f2ff15d146101e757806336568abe146102105780634f1ef2861461023957806352d1902d146102555780638257fcca1461028057610114565b806301ffc9a71461011957806314fd2e3e1461015657806322459e181461017f578063248a9ca3146101aa575b600080fd5b34801561012557600080fd5b50610140600480360381019061013b9190611cbe565b6104b3565b60405161014d9190611d06565b60405180910390f35b34801561016257600080fd5b5061017d60048036038101906101789190611e9d565b61052d565b005b34801561018b57600080fd5b50610194610800565b6040516101a19190611fc5565b60405180910390f35b3480156101b657600080fd5b506101d160048036038101906101cc9190611fe0565b610824565b6040516101de9190611fc5565b60405180910390f35b3480156101f357600080fd5b5061020e6004803603810190610209919061206b565b610852565b005b34801561021c57600080fd5b506102376004803603810190610232919061206b565b610874565b005b610253600480360381019061024e919061214c565b6108ef565b005b34801561026157600080fd5b5061026a61090e565b6040516102779190611fc5565b60405180910390f35b34801561028c57600080fd5b506102a760048036038101906102a291906121a8565b610941565b005b3480156102b557600080fd5b506102d060048036038101906102cb919061206b565b610b98565b6040516102dd9190611d06565b60405180910390f35b3480156102f257600080fd5b506102fb610c11565b6040516103089190611fc5565b60405180910390f35b34801561031d57600080fd5b50610326610c18565b6040516103339190612312565b60405180910390f35b34801561034857600080fd5b50610363600480360381019061035e9190612334565b610c51565b60405161037697969594939291906123a5565b60405180910390f35b34801561038b57600080fd5b506103a660048036038101906103a19190612430565b610ee9565b005b3480156103b457600080fd5b506103cf60048036038101906103ca919061206b565b6110e3565b005b3480156103dd57600080fd5b506103f860048036038101906103f39190612334565b611105565b6040516104059190612312565b60405180910390f35b34801561041a57600080fd5b506104356004803603810190610430919061245d565b6111bb565b6040516104429190611d06565b60405180910390f35b34801561045757600080fd5b50610460611254565b60405161046d9190611fc5565b60405180910390f35b34801561048257600080fd5b5061049d60048036038101906104989190612334565b611278565b6040516104aa9190611d06565b60405180910390f35b60007f7965db0b000000000000000000000000000000000000000000000000000000007bffffffffffffffffffffffffffffffffffffffffffffffffffffffff1916827bffffffffffffffffffffffffffffffffffffffffffffffffffffffff191614806105265750610525826112ae565b5b9050919050565b7fcab5a0bfe0b79d2c4b1c2e02599fa044d115b7511f9659307cb427695096770961055781611318565b60018760405161056791906124f5565b908152602001604051809103902060009054906101000a900460ff16156105c3576040517f08c379a00000000000000000000000000000000000000000000000000000000081526004016105ba90612558565b60405180910390fd5b6040518060e001604052808881526020018781526020013373ffffffffffffffffffffffffffffffffffffffff1681526020018681526020014281526020018581526020018481525060008860405161061c91906124f5565b9081526020016040518091039020600082015181600001908161063f9190612784565b5060208201518160010190816106559190612784565b5060408201518160020160006101000a81548173ffffffffffffffffffffffffffffffffffffffff021916908373ffffffffffffffffffffffffffffffffffffffff160217905550606082015181600301556080820151816004015560a08201518160050190816106c69190612784565b5060c08201518160060190816106dc9190612784565b50905050600180886040516106f191906124f5565b908152602001604051809103902060006101000a81548160ff0219169083151502179055508160028860405161072791906124f5565b908152602001604051809103902090816107419190612784565b503373ffffffffffffffffffffffffffffffffffffffff168760405161076791906124f5565b60405180910390207fbeb584683cd5accbe9cbd3a5eaeec08b8908660194089e7c33a8dc2191777d8a88886040516107a0929190612856565b60405180910390a3866040516107b691906124f5565b60405180910390207f891315b5c60fd4ca63318f4d9274c618853e51ebe4ed76bfa3ebc6969473a0a086846040516107ef929190612886565b60405180910390a250505050505050565b7fcab5a0bfe0b79d2c4b1c2e02599fa044d115b7511f9659307cb427695096770981565b60008061082f61132c565b905080600001600084815260200190815260200160002060010154915050919050565b61085b82610824565b61086481611318565b61086e8383611354565b50505050565b61087c611455565b73ffffffffffffffffffffffffffffffffffffffff168173ffffffffffffffffffffffffffffffffffffffff16146108e0576040517f6697b23200000000000000000000000000000000000000000000000000000000815260040160405180910390fd5b6108ea828261145d565b505050565b6108f761155f565b61090082611645565b61090a8282611673565b5050565b6000610918611792565b7f360894a13ba1a3210667c828492db98dca3e2076cc3735a920a3ca505d382bbc60001b905090565b7fcab5a0bfe0b79d2c4b1c2e02599fa044d115b7511f9659307cb427695096770961096b81611318565b60018660405161097b91906124f5565b908152602001604051809103902060009054906101000a900460ff16156109d7576040517f08c379a00000000000000000000000000000000000000000000000000000000081526004016109ce90612558565b60405180910390fd5b6040518060e001604052808781526020018681526020013373ffffffffffffffffffffffffffffffffffffffff16815260200185815260200142815260200184815260200183815250600087604051610a3091906124f5565b90815260200160405180910390206000820151816000019081610a539190612784565b506020820151816001019081610a699190612784565b5060408201518160020160006101000a81548173ffffffffffffffffffffffffffffffffffffffff021916908373ffffffffffffffffffffffffffffffffffffffff160217905550606082015181600301556080820151816004015560a0820151816005019081610ada9190612784565b5060c0820151816006019081610af09190612784565b5090505060018087604051610b0591906124f5565b908152602001604051809103902060006101000a81548160ff0219169083151502179055503373ffffffffffffffffffffffffffffffffffffffff1686604051610b4f91906124f5565b60405180910390207fbeb584683cd5accbe9cbd3a5eaeec08b8908660194089e7c33a8dc2191777d8a8787604051610b88929190612856565b60405180910390a3505050505050565b600080610ba361132c565b905080600001600085815260200190815260200160002060000160008473ffffffffffffffffffffffffffffffffffffffff1673ffffffffffffffffffffffffffffffffffffffff16815260200190815260200160002060009054906101000a900460ff1691505092915050565b6000801b81565b6040518060400160405280600581526020017f352e302e3000000000000000000000000000000000000000000000000000000081525081565b600081805160208101820180518482526020830160208501208183528095505050505050600091509050806000018054610c8a906125a7565b80601f0160208091040260200160405190810160405280929190818152602001828054610cb6906125a7565b8015610d035780601f10610cd857610100808354040283529160200191610d03565b820191906000526020600020905b815481529060010190602001808311610ce657829003601f168201915b505050505090806001018054610d18906125a7565b80601f0160208091040260200160405190810160405280929190818152602001828054610d44906125a7565b8015610d915780601f10610d6657610100808354040283529160200191610d91565b820191906000526020600020905b815481529060010190602001808311610d7457829003601f168201915b5050505050908060020160009054906101000a900473ffffffffffffffffffffffffffffffffffffffff1690806003015490806004015490806005018054610dd8906125a7565b80601f0160208091040260200160405190810160405280929190818152602001828054610e04906125a7565b8015610e515780601f10610e2657610100808354040283529160200191610e51565b820191906000526020600020905b815481529060010190602001808311610e3457829003601f168201915b505050505090806006018054610e66906125a7565b80601f0160208091040260200160405190810160405280929190818152602001828054610e92906125a7565b8015610edf5780601f10610eb457610100808354040283529160200191610edf565b820191906000526020600020905b815481529060010190602001808311610ec257829003601f168201915b5050505050905087565b6000610ef3611819565b905060008160000160089054906101000a900460ff1615905060008260000160009054906101000a900467ffffffffffffffff1690506000808267ffffffffffffffff16148015610f415750825b9050600060018367ffffffffffffffff16148015610f76575060003073ffffffffffffffffffffffffffffffffffffffff163b145b905081158015610f84575080155b15610fbb576040517ff92ee8a900000000000000000000000000000000000000000000000000000000815260040160405180910390fd5b60018560000160006101000a81548167ffffffffffffffff021916908367ffffffffffffffff160217905550831561100b5760018560000160086101000a81548160ff0219169083151502179055505b61101361182d565b61101b611837565b6110286000801b87611354565b506110537fcab5a0bfe0b79d2c4b1c2e02599fa044d115b7511f9659307cb427695096770987611354565b5061107e7f189ab7a9244df0848122154315af71fe140f3db0fe014031783b0946b8c9d2e387611354565b5083156110db5760008560000160086101000a81548160ff0219169083151502179055507fc7f505b2f371ae2175ee4913f4499e1f2633a7b5936321eed1cdaeb6115181d260016040516110d29190612905565b60405180910390a15b505050505050565b6110ec82610824565b6110f581611318565b6110ff838361145d565b50505050565b600281805160208101820180518482526020830160208501208183528095505050505050600091509050805461113a906125a7565b80601f0160208091040260200160405190810160405280929190818152602001828054611166906125a7565b80156111b35780601f10611188576101008083540402835291602001916111b3565b820191906000526020600020905b81548152906001019060200180831161119657829003601f168201915b505050505081565b60006001836040516111cd91906124f5565b908152602001604051809103902060009054906101000a900460ff16611228576040517f08c379a000000000000000000000000000000000000000000000000000000000815260040161121f9061296c565b60405180910390fd5b8160008460405161123991906124f5565b90815260200160405180910390206003015414905092915050565b7f189ab7a9244df0848122154315af71fe140f3db0fe014031783b0946b8c9d2e381565b6001818051602081018201805184825260208301602085012081835280955050505050506000915054906101000a900460ff1681565b60007f01ffc9a7000000000000000000000000000000000000000000000000000000007bffffffffffffffffffffffffffffffffffffffffffffffffffffffff1916827bffffffffffffffffffffffffffffffffffffffffffffffffffffffff1916149050919050565b61132981611324611455565b611841565b50565b60007f02dd7bc7dec4dceedda775e58dd541e08a116c6c53815c0bd028192f7b626800905090565b60008061135f61132c565b905061136b8484610b98565b61144957600181600001600086815260200190815260200160002060000160008573ffffffffffffffffffffffffffffffffffffffff1673ffffffffffffffffffffffffffffffffffffffff16815260200190815260200160002060006101000a81548160ff0219169083151502179055506113e5611455565b73ffffffffffffffffffffffffffffffffffffffff168373ffffffffffffffffffffffffffffffffffffffff16857f2f8788117e7eff1d82e926ec794901d17c78024a50270940304540a733656f0d60405160405180910390a4600191505061144f565b60009150505b92915050565b600033905090565b60008061146861132c565b90506114748484610b98565b1561155357600081600001600086815260200190815260200160002060000160008573ffffffffffffffffffffffffffffffffffffffff1673ffffffffffffffffffffffffffffffffffffffff16815260200190815260200160002060006101000a81548160ff0219169083151502179055506114ef611455565b73ffffffffffffffffffffffffffffffffffffffff168373ffffffffffffffffffffffffffffffffffffffff16857ff6391f5c32d9c69d2a47ea670b442974b53935d1edc7fd64eb21e047a839171b60405160405180910390a46001915050611559565b60009150505b92915050565b7f000000000000000000000000000000000000000000000000000000000000000073ffffffffffffffffffffffffffffffffffffffff163073ffffffffffffffffffffffffffffffffffffffff16148061160c57507f000000000000000000000000000000000000000000000000000000000000000073ffffffffffffffffffffffffffffffffffffffff166115f3611892565b73ffffffffffffffffffffffffffffffffffffffff1614155b15611643576040517fe07c8dba00000000000000000000000000000000000000000000000000000000815260040160405180910390fd5b565b7f189ab7a9244df0848122154315af71fe140f3db0fe014031783b0946b8c9d2e361166f81611318565b5050565b8173ffffffffffffffffffffffffffffffffffffffff166352d1902d6040518163ffffffff1660e01b8152600401602060405180830381865afa9250505080156116db57506040513d601f19601f820116820180604052508101906116d891906129a1565b60015b61171c57816040517f4c9c8ce300000000000000000000000000000000000000000000000000000000815260040161171391906129ce565b60405180910390fd5b7f360894a13ba1a3210667c828492db98dca3e2076cc3735a920a3ca505d382bbc60001b811461178357806040517faa1d49a400000000000000000000000000000000000000000000000000000000815260040161177a9190611fc5565b60405180910390fd5b61178d83836118e9565b505050565b7f000000000000000000000000000000000000000000000000000000000000000073ffffffffffffffffffffffffffffffffffffffff163073ffffffffffffffffffffffffffffffffffffffff1614611817576040517fe07c8dba00000000000000000000000000000000000000000000000000000000815260040160405180910390fd5b565b60008061182461195c565b90508091505090565b611835611987565b565b61183f611987565b565b61184b8282610b98565b61188e5780826040517fe2517d3f0000000000000000000000000000000000000000000000000000000081526004016118859291906129e9565b60405180910390fd5b5050565b60006118c07f360894a13ba1a3210667c828492db98dca3e2076cc3735a920a3ca505d382bbc60001b6119c7565b60000160009054906101000a900473ffffffffffffffffffffffffffffffffffffffff16905090565b6118f2826119d1565b8173ffffffffffffffffffffffffffffffffffffffff167fbc7cd75a20ee27fd9adebab32041f755214dbc6bffa90cc0225b39da2e5c2d3b60405160405180910390a260008151111561194f576119498282611a9e565b50611958565b611957611b22565b5b5050565b60007ff0c57e16840df040f15088dc2f81fe391c3923bec73e23a9662efc9c229c6a0060001b905090565b61198f611b5f565b6119c5576040517fd7e6bcf800000000000000000000000000000000000000000000000000000000815260040160405180910390fd5b565b6000819050919050565b60008173ffffffffffffffffffffffffffffffffffffffff163b03611a2d57806040517f4c9c8ce3000000000000000000000000000000000000000000000000000000008152600401611a2491906129ce565b60405180910390fd5b80611a5a7f360894a13ba1a3210667c828492db98dca3e2076cc3735a920a3ca505d382bbc60001b6119c7565b60000160006101000a81548173ffffffffffffffffffffffffffffffffffffffff021916908373ffffffffffffffffffffffffffffffffffffffff16021790555050565b60606000808473ffffffffffffffffffffffffffffffffffffffff1684604051611ac89190612a59565b600060405180830381855af49150503d8060008114611b03576040519150601f19603f3d011682016040523d82523d6000602084013e611b08565b606091505b5091509150611b18858383611b7f565b9250505092915050565b6000341115611b5d576040517fb398979f00000000000000000000000000000000000000000000000000000000815260040160405180910390fd5b565b6000611b69611819565b60000160089054906101000a900460ff16905090565b606082611b9457611b8f82611c0e565b611c06565b60008251148015611bbc575060008473ffffffffffffffffffffffffffffffffffffffff163b145b15611bfe57836040517f9996b315000000000000000000000000000000000000000000000000000000008152600401611bf591906129ce565b60405180910390fd5b819050611c07565b5b9392505050565b600081511115611c2057805160208201fd5b6040517fd6bda27500000000000000000000000000000000000000000000000000000000815260040160405180910390fd5b6000604051905090565b600080fd5b600080fd5b60007fffffffff0000000000000000000000000000000000000000000000000000000082169050919050565b611c9b81611c66565b8114611ca657600080fd5b50565b600081359050611cb881611c92565b92915050565b600060208284031215611cd457611cd3611c5c565b5b6000611ce284828501611ca9565b91505092915050565b60008115159050919050565b611d0081611ceb565b82525050565b6000602082019050611d1b6000830184611cf7565b92915050565b600080fd5b600080fd5b6000601f19601f8301169050919050565b7f4e487b7100000000000000000000000000000000000000000000000000000000600052604160045260246000fd5b611d7482611d2b565b810181811067ffffffffffffffff82111715611d9357611d92611d3c565b5b80604052505050565b6000611da6611c52565b9050611db28282611d6b565b919050565b600067ffffffffffffffff821115611dd257611dd1611d3c565b5b611ddb82611d2b565b9050602081019050919050565b82818337600083830152505050565b6000611e0a611e0584611db7565b611d9c565b905082815260208101848484011115611e2657611e25611d26565b5b611e31848285611de8565b509392505050565b600082601f830112611e4e57611e4d611d21565b5b8135611e5e848260208601611df7565b91505092915050565b6000819050919050565b611e7a81611e67565b8114611e8557600080fd5b50565b600081359050611e9781611e71565b92915050565b60008060008060008060c08789031215611eba57611eb9611c5c565b5b600087013567ffffffffffffffff811115611ed857611ed7611c61565b5b611ee489828a01611e39565b965050602087013567ffffffffffffffff811115611f0557611f04611c61565b5b611f1189828a01611e39565b9550506040611f2289828a01611e88565b945050606087013567ffffffffffffffff811115611f4357611f42611c61565b5b611f4f89828a01611e39565b935050608087013567ffffffffffffffff811115611f7057611f6f611c61565b5b611f7c89828a01611e39565b92505060a087013567ffffffffffffffff811115611f9d57611f9c611c61565b5b611fa989828a01611e39565b9150509295509295509295565b611fbf81611e67565b82525050565b6000602082019050611fda6000830184611fb6565b92915050565b600060208284031215611ff657611ff5611c5c565b5b600061200484828501611e88565b91505092915050565b600073ffffffffffffffffffffffffffffffffffffffff82169050919050565b60006120388261200d565b9050919050565b6120488161202d565b811461205357600080fd5b50565b6000813590506120658161203f565b92915050565b6000806040838503121561208257612081611c5c565b5b600061209085828601611e88565b92505060206120a185828601612056565b9150509250929050565b600067ffffffffffffffff8211156120c6576120c5611d3c565b5b6120cf82611d2b565b9050602081019050919050565b60006120ef6120ea846120ab565b611d9c565b90508281526020810184848401111561210b5761210a611d26565b5b612116848285611de8565b509392505050565b600082601f83011261213357612132611d21565b5b81356121438482602086016120dc565b91505092915050565b6000806040838503121561216357612162611c5c565b5b600061217185828601612056565b925050602083013567ffffffffffffffff81111561219257612191611c61565b5b61219e8582860161211e565b9150509250929050565b600080600080600060a086880312156121c4576121c3611c5c565b5b600086013567ffffffffffffffff8111156121e2576121e1611c61565b5b6121ee88828901611e39565b955050602086013567ffffffffffffffff81111561220f5761220e611c61565b5b61221b88828901611e39565b945050604061222c88828901611e88565b935050606086013567ffffffffffffffff81111561224d5761224c611c61565b5b61225988828901611e39565b925050608086013567ffffffffffffffff81111561227a57612279611c61565b5b61228688828901611e39565b9150509295509295909350565b600081519050919050565b600082825260208201905092915050565b60005b838110156122cd5780820151818401526020810190506122b2565b60008484015250505050565b60006122e482612293565b6122ee818561229e565b93506122fe8185602086016122af565b61230781611d2b565b840191505092915050565b6000602082019050818103600083015261232c81846122d9565b905092915050565b60006020828403121561234a57612349611c5c565b5b600082013567ffffffffffffffff81111561236857612367611c61565b5b61237484828501611e39565b91505092915050565b6123868161202d565b82525050565b6000819050919050565b61239f8161238c565b82525050565b600060e08201905081810360008301526123bf818a6122d9565b905081810360208301526123d381896122d9565b90506123e2604083018861237d565b6123ef6060830187611fb6565b6123fc6080830186612396565b81810360a083015261240e81856122d9565b905081810360c083015261242281846122d9565b905098975050505050505050565b60006020828403121561244657612445611c5c565b5b600061245484828501612056565b91505092915050565b6000806040838503121561247457612473611c5c565b5b600083013567ffffffffffffffff81111561249257612491611c61565b5b61249e85828601611e39565b92505060206124af85828601611e88565b9150509250929050565b600081905092915050565b60006124cf82612293565b6124d981856124b9565b93506124e98185602086016122af565b80840191505092915050565b600061250182846124c4565b915081905092915050565b7f426c6f636b20616c726561647920657869737473000000000000000000000000600082015250565b600061254260148361229e565b915061254d8261250c565b602082019050919050565b6000602082019050818103600083015261257181612535565b9050919050565b7f4e487b7100000000000000000000000000000000000000000000000000000000600052602260045260246000fd5b600060028204905060018216806125bf57607f821691505b6020821081036125d2576125d1612578565b5b50919050565b60008190508160005260206000209050919050565b60006020601f8301049050919050565b600082821b905092915050565b60006008830261263a7fffffffffffffffffffffffffffffffffffffffffffffffffffffffffffffffff826125fd565b61264486836125fd565b95508019841693508086168417925050509392505050565b6000819050919050565b600061268161267c6126778461238c565b61265c565b61238c565b9050919050565b6000819050919050565b61269b83612666565b6126af6126a782612688565b84845461260a565b825550505050565b600090565b6126c46126b7565b6126cf818484612692565b505050565b5b818110156126f3576126e86000826126bc565b6001810190506126d5565b5050565b601f82111561273857612709816125d8565b612712846125ed565b81016020851015612721578190505b61273561272d856125ed565b8301826126d4565b50505b505050565b600082821c905092915050565b600061275b6000198460080261273d565b1980831691505092915050565b6000612774838361274a565b9150826002028217905092915050565b61278d82612293565b67ffffffffffffffff8111156127a6576127a5611d3c565b5b6127b082546125a7565b6127bb8282856126f7565b600060209050601f8311600181146127ee57600084156127dc578287015190505b6127e68582612768565b86555061284e565b601f1984166127fc866125d8565b60005b82811015612824578489015182556001820191506020850194506020810190506127ff565b86831015612841578489015161283d601f89168261274a565b8355505b6001600288020188555050505b505050505050565b6000604082019050818103600083015261287081856122d9565b905061287f6020830184611fb6565b9392505050565b600060408201905061289b6000830185611fb6565b81810360208301526128ad81846122d9565b90509392505050565b6000819050919050565b600067ffffffffffffffff82169050919050565b60006128ef6128ea6128e5846128b6565b61265c565b6128c0565b9050919050565b6128ff816128d4565b82525050565b600060208201905061291a60008301846128f6565b92915050565b7f426c6f636b20646f6573206e6f74206578697374000000000000000000000000600082015250565b600061295660148361229e565b915061296182612920565b602082019050919050565b6000602082019050818103600083015261298581612949565b9050919050565b60008151905061299b81611e71565b92915050565b6000602082840312156129b7576129b6611c5c565b5b60006129c58482850161298c565b91505092915050565b60006020820190506129e3600083018461237d565b92915050565b60006040820190506129fe600083018561237d565b612a0b6020830184611fb6565b9392505050565b600081519050919050565b600081905092915050565b6000612a3382612a12565b612a3d8185612a1d565b9350612a4d8185602086016122af565b80840191505092915050565b6000612a658284612a28565b91508190509291505056fea2646970667358221220e13ce1ad7ff19d537edbecd79d0df5c6aef526736adb1194a31fcdf53a7c2e2864736f6c63430008160033",
  "linkReferences": {},
  "deployedLinkReferences": {}
}