{
  "_format": "hh-sol-artifact-1",
  "contractName": "YAMORegistry",
  "sourceName": "contracts/YAMORegistry.sol",
  "abi": [
    {
      "inputs": [],
      "stateMutability": "nonpayable",
      "type": "constructor"
    },
    {
      "inputs": [],
      "name": "AccessControlBadConfirmation",
      "type": "error"
    },
    {
      "inputs": [
        {
          "internalType": "address",
          "name": "account",
          "type": "address"
        },
        {
          "internalType": "bytes32",
          "name": "neededRole",
          "type": "bytes32"
        }
      ],
      "name": "AccessControlUnauthorizedAccount",
      "type": "error"
    },
    {
      "inputs": [
        {
          "internalType": "address",
          "name": "target",
          "type": "address"
        }
      ],
      "name": "AddressEmptyCode",
      "type": "error"
    },
    {
      "inputs": [
        {
          "internalType": "address",
          "name": "implementation",
          "type": "address"
        }
      ],
      "name": "ERC1967InvalidImplementation",
      "type": "error"
    },
    {
      "inputs": [],
      "name": "ERC1967NonPayable",
      "type": "error"
    },
    {
      "inputs": [],
      "name": "FailedCall",
      "type": "error"
    },
    {
      "inputs": [],
      "name": "InvalidInitialization",
      "type": "error"
    },
    {
      "inputs": [],
      "name": "NotInitializing",
      "type": "error"
    },
    {
      "inputs": [],
      "name": "UUPSUnauthorizedCallContext",
      "type": "error"
    },
    {
      "inputs": [
        {
          "internalType": "bytes32",
          "name": "slot",
          "type": "bytes32"
        }
      ],
      "name": "UUPSUnsupportedProxiableUUID",
      "type": "error"
    },
    {
      "anonymous": false,
      "inputs": [
        {
          "indexed": false,
          "internalType": "uint64",
          "name": "version",
          "type": "uint64"
        }
      ],
      "name": "Initialized",
      "type": "event"
    },
    {
      "anonymous": false,
      "inputs": [
        {
          "indexed": true,
          "internalType": "bytes32",
          "name": "role",
          "type": "bytes32"
        },
        {
          "indexed": true,
          "internalType": "bytes32",
          "name": "previousAdminRole",
          "type": "bytes32"
        },
        {
          "indexed": true,
          "internalType": "bytes32",
          "name": "newAdminRole",
          "type": "bytes32"
        }
      ],
      "name": "RoleAdminChanged",
      "type": "event"
    },
    {
      "anonymous": false,
      "inputs": [
        {
          "indexed": true,
          "internalType": "bytes32",
          "name": "role",
          "type": "bytes32"
        },
        {
          "indexed": true,
          "internalType": "address",
          "name": "account",
          "type": "address"
        },
        {
          "indexed": true,
          "internalType": "address",
          "name": "sender",
          "type": "address"
        }
      ],
      "name": "RoleGranted",
      "type": "event"
    },
    {
      "anonymous": false,
      "inputs": [
        {
          "indexed": true,
          "internalType": "bytes32",
          "name": "role",
          "type": "bytes32"
        },
        {
          "indexed": true,
          "internalType": "address",
          "name": "account",
          "type": "address"
        },
        {
          "indexed": true,
          "internalType": "address",
          "name": "sender",
          "type": "address"
        }
      ],
      "name": "RoleRevoked",
      "type": "event"
    },
    {
      "anonymous": false,
      "inputs": [
        {
          "indexed": true,
          "internalType": "address",
          "name": "implementation",
          "type": "address"
        }
      ],
      "name": "Upgraded",
      "type": "event"
    },
    {
      "anonymous": false,
      "inputs": [
        {
          "indexed": true,
          "internalType": "string",
          "name": "blockId",
          "type": "string"
        },
        {
          "indexed": false,
          "internalType": "string",
          "name": "previousBlock",
          "type": "string"
        },
        {
          "indexed": true,
          "internalType": "address",
          "name": "agent",
          "type": "address"
        },
        {
          "indexed": false,
          "internalType": "bytes32",
          "name": "contentHash",
          "type": "bytes32"
        }
      ],
      "name": "YAMOBlockSubmitted",
      "type": "event"
    },
    {
      "inputs": [],
      "name": "AGENT_ROLE",
      "outputs": [
        {
          "internalType": "bytes32",
          "name": "",
          "type": "bytes32"
        }
      ],
      "stateMutability": "view",
      "type": "function"
    },
    {
      "inputs": [],
      "name": "DEFAULT_ADMIN_ROLE",
      "outputs": [
        {
          "internalType": "bytes32",
          "name": "",
          "type": "bytes32"
        }
      ],
      "stateMutability": "view",
      "type": "function"
    },
    {
      "inputs": [],
      "name": "UPGRADER_ROLE",
      "outputs": [
        {
          "internalType": "bytes32",
          "name": "",
          "type": "bytes32"
        }
      ],
      "stateMutability": "view",
      "type": "function"
    },
    {
      "inputs": [],
      "name": "UPGRADE_INTERFACE_VERSION",
      "outputs": [
        {
          "internalType": "string",
          "name": "",
          "type": "string"
        }
      ],
      "stateMutability": "view",
      "type": "function"
    },
    {
      "inputs": [
        {
          "internalType": "string",
          "name": "",
          "type": "string"
        }
      ],
      "name": "blockExists",
      "outputs": [
        {
          "internalType": "bool",
          "name": "",
          "type": "bool"
        }
      ],
      "stateMutability": "view",
      "type": "function"
    },
    {
      "inputs": [
        {
          "internalType": "string",
          "name": "",
          "type": "string"
        }
      ],
      "name": "blocks",
      "outputs": [
        {
          "internalType": "string",
          "name": "blockId",
          "type": "string"
        },
        {
          "internalType": "string",
          "name": "previousBlock",
          "type": "string"
        },
        {
          "internalType": "address",
          "name": "agentAddress",
          "type": "address"
        },
        {
          "internalType": "bytes32",
          "name": "contentHash",
          "type": "bytes32"
        },
        {
          "internalType": "uint256",
          "name": "timestamp",
          "type": "uint256"
        },
        {
          "internalType": "string",
          "name": "consensusType",
          "type": "string"
        },
        {
          "internalType": "string",
          "name": "ledger",
          "type": "string"
        }
      ],
      "stateMutability": "view",
      "type": "function"
    },
    {
      "inputs": [
        {
          "internalType": "bytes32",
          "name": "role",
          "type": "bytes32"
        }
      ],
      "name": "getRoleAdmin",
      "outputs": [
        {
          "internalType": "bytes32",
          "name": "",
          "type": "bytes32"
        }
      ],
      "stateMutability": "view",
      "type": "function"
    },
    {
      "inputs": [
        {
          "internalType": "bytes32",
          "name": "role",
          "type": "bytes32"
        },
        {
          "internalType": "address",
          "name": "account",
          "type": "address"
        }
      ],
      "name": "grantRole",
      "outputs": [],
      "stateMutability": "nonpayable",
      "type": "function"
    },
    {
      "inputs": [
        {
          "internalType": "bytes32",
          "name": "role",
          "type": "bytes32"
        },
        {
          "internalType": "address",
          "name": "account",
          "type": "address"
        }
      ],
      "name": "hasRole",
      "outputs": [
        {
          "internalType": "bool",
          "name": "",
          "type": "bool"
        }
      ],
      "stateMutability": "view",
      "type": "function"
    },
    {
      "inputs": [
        {
          "internalType": "address",
          "name": "defaultAdmin",
          "type": "address"
        }
      ],
      "name": "initialize",
      "outputs": [],
      "stateMutability": "nonpayable",
      "type": "function"
    },
    {
      "inputs": [],
      "name": "proxiableUUID",
      "outputs": [
        {
          "internalType": "bytes32",
          "name": "",
          "type": "bytes32"
        }
      ],
      "stateMutability": "view",
      "type": "function"
    },
    {
      "inputs": [
        {
          "internalType": "bytes32",
          "name": "role",
          "type": "bytes32"
        },
        {
          "internalType": "address",
          "name": "callerConfirmation",
          "type": "address"
        }
      ],
      "name": "renounceRole",
      "outputs": [],
      "stateMutability": "nonpayable",
      "type": "function"
    },
    {
      "inputs": [
        {
          "internalType": "bytes32",
          "name": "role",
          "type": "bytes32"
        },
        {
          "internalType": "address",
          "name": "account",
          "type": "address"
        }
      ],
      "name": "revokeRole",
      "outputs": [],
      "stateMutability": "nonpayable",
      "type": "function"
    },
    {
      "inputs": [
        {
          "internalType": "string",
          "name": "blockId",
          "type": "string"
        },
        {
          "internalType": "string",
          "name": "previousBlock",
          "type": "string"
        },
        {
          "internalType": "bytes32",
          "name": "contentHash",
          "type": "bytes32"
        },
        {
          "internalType": "string",
          "name": "consensusType",
          "type": "string"
        },
        {
          "internalType": "string",
          "name": "ledger",
          "type": "string"
        }
      ],
      "name": "submitBlock",
      "outputs": [],
      "stateMutability": "nonpayable",
      "type": "function"
    },
    {
      "inputs": [
        {
          "internalType": "bytes4",
          "name": "interfaceId",
          "type": "bytes4"
        }
      ],
      "name": "supportsInterface",
      "outputs": [
        {
          "internalType": "bool",
          "name": "",
          "type": "bool"
        }
      ],
      "stateMutability": "view",
      "type": "function"
    },
    {
      "inputs": [
        {
          "internalType": "address",
          "name": "newImplementation",
          "type": "address"
        },
        {
          "internalType": "bytes",
          "name": "data",
          "type": "bytes"
        }
      ],
      "name": "upgradeToAndCall",
      "outputs": [],
      "stateMutability": "payable",
      "type": "function"
    },
    {
      "inputs": [
        {
          "internalType": "string",
          "name": "blockId",
          "type": "string"
        },
        {
          "internalType": "bytes32",
          "name": "contentHash",
          "type": "bytes32"
        }
      ],
      "name": "verifyBlock",
      "outputs": [
        {
          "internalType": "bool",
          "name": "",
          "type": "bool"
        }
      ],
      "stateMutability": "view",
      "type": "function"
    }
  ],
  "bytecode": "0x60a06040523073ffffffffffffffffffffffffffffffffffffffff1660809073ffffffffffffffffffffffffffffffffffffffff168152503480156200004457600080fd5b50620000556200005b60201b60201c565b620001ee565b60006200006d6200016560201b60201c565b90508060000160089054906101000a900460ff1615620000b9576040517ff92ee8a900000000000000000000000000000000000000000000000000000000815260040160405180910390fd5b67ffffffffffffffff80168160000160009054906101000a900467ffffffffffffffff1667ffffffffffffffff1614620001625767ffffffffffffffff8160000160006101000a81548167ffffffffffffffff021916908367ffffffffffffffff1602179055507fc7f505b2f371ae2175ee4913f4499e1f2633a7b5936321eed1cdaeb6115181d267ffffffffffffffff604051620001599190620001d1565b60405180910390a15b50565b600080620001786200018160201b60201c565b90508091505090565b60007ff0c57e16840df040f15088dc2f81fe391c3923bec73e23a9662efc9c229c6a0060001b905090565b600067ffffffffffffffff82169050919050565b620001cb81620001ac565b82525050565b6000602082019050620001e86000830184620001c0565b92915050565b608051612558620002186000396000818161115c015281816111b1015261138f01526125586000f3fe6080604052600436106100fe5760003560e01c806391d1485411610095578063c4d66de811610064578063c4d66de814610340578063d547741f14610369578063dddc481d14610392578063f72c0d8b146103cf578063f8b5b7f6146103fa576100fe565b806391d148541461026a578063a217fddf146102a7578063ad3cb1cc146102d2578063b312ded3146102fd576100fe565b806336568abe116100d157806336568abe146101d15780634f1ef286146101fa57806352d1902d146102165780638257fcca14610241576100fe565b806301ffc9a71461010357806322459e1814610140578063248a9ca31461016b5780632f2ff15d146101a8575b600080fd5b34801561010f57600080fd5b5061012a600480360381019061012591906118b9565b610437565b6040516101379190611901565b60405180910390f35b34801561014c57600080fd5b506101556104b1565b6040516101629190611935565b60405180910390f35b34801561017757600080fd5b50610192600480360381019061018d919061197c565b6104d5565b60405161019f9190611935565b60405180910390f35b3480156101b457600080fd5b506101cf60048036038101906101ca9190611a07565b610503565b005b3480156101dd57600080fd5b506101f860048036038101906101f39190611a07565b610525565b005b610214600480360381019061020f9190611b8d565b6105a0565b005b34801561022257600080fd5b5061022b6105bf565b6040516102389190611935565b60405180910390f35b34801561024d57600080fd5b5061026860048036038101906102639190611c8a565b6105f2565b005b34801561027657600080fd5b50610291600480360381019061028c9190611a07565b610849565b60405161029e9190611901565b60405180910390f35b3480156102b357600080fd5b506102bc6108c2565b6040516102c99190611935565b60405180910390f35b3480156102de57600080fd5b506102e76108c9565b6040516102f49190611df4565b60405180910390f35b34801561030957600080fd5b50610324600480360381019061031f9190611e16565b610902565b6040516103379796959493929190611e87565b60405180910390f35b34801561034c57600080fd5b5061036760048036038101906103629190611f12565b610b9a565b005b34801561037557600080fd5b50610390600480360381019061038b9190611a07565b610d94565b005b34801561039e57600080fd5b506103b960048036038101906103b49190611f3f565b610db6565b6040516103c69190611901565b60405180910390f35b3480156103db57600080fd5b506103e4610e4f565b6040516103f19190611935565b60405180910390f35b34801561040657600080fd5b50610421600480360381019061041c9190611e16565b610e73565b60405161042e9190611901565b60405180910390f35b60007f7965db0b000000000000000000000000000000000000000000000000000000007bffffffffffffffffffffffffffffffffffffffffffffffffffffffff1916827bffffffffffffffffffffffffffffffffffffffffffffffffffffffff191614806104aa57506104a982610ea9565b5b9050919050565b7fcab5a0bfe0b79d2c4b1c2e02599fa044d115b7511f9659307cb427695096770981565b6000806104e0610f13565b905080600001600084815260200190815260200160002060010154915050919050565b61050c826104d5565b61051581610f3b565b61051f8383610f4f565b50505050565b61052d611050565b73ffffffffffffffffffffffffffffffffffffffff168173ffffffffffffffffffffffffffffffffffffffff1614610591576040517f6697b23200000000000000000000000000000000000000000000000000000000815260040160405180910390fd5b61059b8282611058565b505050565b6105a861115a565b6105b182611240565b6105bb828261126e565b5050565b60006105c961138d565b7f360894a13ba1a3210667c828492db98dca3e2076cc3735a920a3ca505d382bbc60001b905090565b7fcab5a0bfe0b79d2c4b1c2e02599fa044d115b7511f9659307cb427695096770961061c81610f3b565b60018660405161062c9190611fd7565b908152602001604051809103902060009054906101000a900460ff1615610688576040517f08c379a000000000000000000000000000000000000000000000000000000000815260040161067f9061203a565b60405180910390fd5b6040518060e001604052808781526020018681526020013373ffffffffffffffffffffffffffffffffffffffff168152602001858152602001428152602001848152602001838152506000876040516106e19190611fd7565b908152602001604051809103902060008201518160000190816107049190612266565b50602082015181600101908161071a9190612266565b5060408201518160020160006101000a81548173ffffffffffffffffffffffffffffffffffffffff021916908373ffffffffffffffffffffffffffffffffffffffff160217905550606082015181600301556080820151816004015560a082015181600501908161078b9190612266565b5060c08201518160060190816107a19190612266565b50905050600180876040516107b69190611fd7565b908152602001604051809103902060006101000a81548160ff0219169083151502179055503373ffffffffffffffffffffffffffffffffffffffff16866040516108009190611fd7565b60405180910390207fbeb584683cd5accbe9cbd3a5eaeec08b8908660194089e7c33a8dc2191777d8a8787604051610839929190612338565b60405180910390a3505050505050565b600080610854610f13565b905080600001600085815260200190815260200160002060000160008473ffffffffffffffffffffffffffffffffffffffff1673ffffffffffffffffffffffffffffffffffffffff16815260200190815260200160002060009054906101000a900460ff1691505092915050565b6000801b81565b6040518060400160405280600581526020017f352e302e3000000000000000000000000000000000000000000000000000000081525081565b60008180516020810182018051848252602083016020850120818352809550505050505060009150905080600001805461093b90612089565b80601f016020809104026020016040519081016040528092919081815260200182805461096790612089565b80156109b45780601f10610989576101008083540402835291602001916109b4565b820191906000526020600020905b81548152906001019060200180831161099757829003601f168201915b5050505050908060010180546109c990612089565b80601f01602080910402602001604051908101604052809291908181526020018280546109f590612089565b8015610a425780601f10610a1757610100808354040283529160200191610a42565b820191906000526020600020905b815481529060010190602001808311610a2557829003601f168201915b5050505050908060020160009054906101000a900473ffffffffffffffffffffffffffffffffffffffff1690806003015490806004015490806005018054610a8990612089565b80601f0160208091040260200160405190810160405280929190818152602001828054610ab590612089565b8015610b025780601f10610ad757610100808354040283529160200191610b02565b820191906000526020600020905b815481529060010190602001808311610ae557829003601f168201915b505050505090806006018054610b1790612089565b80601f0160208091040260200160405190810160405280929190818152602001828054610b4390612089565b8015610b905780601f10610b6557610100808354040283529160200191610b90565b820191906000526020600020905b815481529060010190602001808311610b7357829003601f168201915b5050505050905087565b6000610ba4611414565b905060008160000160089054906101000a900460ff1615905060008260000160009054906101000a900467ffffffffffffffff1690506000808267ffffffffffffffff16148015610bf25750825b9050600060018367ffffffffffffffff16148015610c27575060003073ffffffffffffffffffffffffffffffffffffffff163b145b905081158015610c35575080155b15610c6c576040517ff92ee8a900000000000000000000000000000000000000000000000000000000815260040160405180910390fd5b60018560000160006101000a81548167ffffffffffffffff021916908367ffffffffffffffff1602179055508315610cbc5760018560000160086101000a81548160ff0219169083151502179055505b610cc4611428565b610ccc611432565b610cd96000801b87610f4f565b50610d047fcab5a0bfe0b79d2c4b1c2e02599fa044d115b7511f9659307cb427695096770987610f4f565b50610d2f7f189ab7a9244df0848122154315af71fe140f3db0fe014031783b0946b8c9d2e387610f4f565b508315610d8c5760008560000160086101000a81548160ff0219169083151502179055507fc7f505b2f371ae2175ee4913f4499e1f2633a7b5936321eed1cdaeb6115181d26001604051610d8391906123b7565b60405180910390a15b505050505050565b610d9d826104d5565b610da681610f3b565b610db08383611058565b50505050565b6000600183604051610dc89190611fd7565b908152602001604051809103902060009054906101000a900460ff16610e23576040517f08c379a0000000000000000000000000000000000000000000000000000000008152600401610e1a9061241e565b60405180910390fd5b81600084604051610e349190611fd7565b90815260200160405180910390206003015414905092915050565b7f189ab7a9244df0848122154315af71fe140f3db0fe014031783b0946b8c9d2e381565b6001818051602081018201805184825260208301602085012081835280955050505050506000915054906101000a900460ff1681565b60007f01ffc9a7000000000000000000000000000000000000000000000000000000007bffffffffffffffffffffffffffffffffffffffffffffffffffffffff1916827bffffffffffffffffffffffffffffffffffffffffffffffffffffffff1916149050919050565b60007f02dd7bc7dec4dceedda775e58dd541e08a116c6c53815c0bd028192f7b626800905090565b610f4c81610f47611050565b61143c565b50565b600080610f5a610f13565b9050610f668484610849565b61104457600181600001600086815260200190815260200160002060000160008573ffffffffffffffffffffffffffffffffffffffff1673ffffffffffffffffffffffffffffffffffffffff16815260200190815260200160002060006101000a81548160ff021916908315150217905550610fe0611050565b73ffffffffffffffffffffffffffffffffffffffff168373ffffffffffffffffffffffffffffffffffffffff16857f2f8788117e7eff1d82e926ec794901d17c78024a50270940304540a733656f0d60405160405180910390a4600191505061104a565b60009150505b92915050565b600033905090565b600080611063610f13565b905061106f8484610849565b1561114e57600081600001600086815260200190815260200160002060000160008573ffffffffffffffffffffffffffffffffffffffff1673ffffffffffffffffffffffffffffffffffffffff16815260200190815260200160002060006101000a81548160ff0219169083151502179055506110ea611050565b73ffffffffffffffffffffffffffffffffffffffff168373ffffffffffffffffffffffffffffffffffffffff16857ff6391f5c32d9c69d2a47ea670b442974b53935d1edc7fd64eb21e047a839171b60405160405180910390a46001915050611154565b60009150505b92915050565b7f000000000000000000000000000000000000000000000000000000000000000073ffffffffffffffffffffffffffffffffffffffff163073ffffffffffffffffffffffffffffffffffffffff16148061120757507f000000000000000000000000000000000000000000000000000000000000000073ffffffffffffffffffffffffffffffffffffffff166111ee61148d565b73ffffffffffffffffffffffffffffffffffffffff1614155b1561123e576040517fe07c8dba00000000000000000000000000000000000000000000000000000000815260040160405180910390fd5b565b7f189ab7a9244df0848122154315af71fe140f3db0fe014031783b0946b8c9d2e361126a81610f3b565b5050565b8173ffffffffffffffffffffffffffffffffffffffff166352d1902d6040518163ffffffff1660e01b8152600401602060405180830381865afa9250505080156112d657506040513d601f19601f820116820180604052508101906112d39190612453565b60015b61131757816040517f4c9c8ce300000000000000000000000000000000000000000000000000000000815260040161130e9190612480565b60405180910390fd5b7f360894a13ba1a3210667c828492db98dca3e2076cc3735a920a3ca505d382bbc60001b811461137e57806040517faa1d49a40000000000000000000000000000000000000000000000000000000081526004016113759190611935565b60405180910390fd5b61138883836114e4565b505050565b7f000000000000000000000000000000000000000000000000000000000000000073ffffffffffffffffffffffffffffffffffffffff163073ffffffffffffffffffffffffffffffffffffffff1614611412576040517fe07c8dba00000000000000000000000000000000000000000000000000000000815260040160405180910390fd5b565b60008061141f611557565b90508091505090565b611430611582565b565b61143a611582565b565b6114468282610849565b6114895780826040517fe2517d3f00000000000000000000000000000000000000000000000000000000815260040161148092919061249b565b60405180910390fd5b5050565b60006114bb7f360894a13ba1a3210667c828492db98dca3e2076cc3735a920a3ca505d382bbc60001b6115c2565b60000160009054906101000a900473ffffffffffffffffffffffffffffffffffffffff16905090565b6114ed826115cc565b8173ffffffffffffffffffffffffffffffffffffffff167fbc7cd75a20ee27fd9adebab32041f755214dbc6bffa90cc0225b39da2e5c2d3b60405160405180910390a260008151111561154a576115448282611699565b50611553565b61155261171d565b5b5050565b60007ff0c57e16840df040f15088dc2f81fe391c3923bec73e23a9662efc9c229c6a0060001b905090565b61158a61175a565b6115c0576040517fd7e6bcf800000000000000000000000000000000000000000000000000000000815260040160405180910390fd5b565b6000819050919050565b60008173ffffffffffffffffffffffffffffffffffffffff163b0361162857806040517f4c9c8ce300000000000000000000000000000000000000000000000000000000815260040161161f9190612480565b60405180910390fd5b806116557f360894a13ba1a3210667c828492db98dca3e2076cc3735a920a3ca505d382bbc60001b6115c2565b60000160006101000a81548173ffffffffffffffffffffffffffffffffffffffff021916908373ffffffffffffffffffffffffffffffffffffffff16021790555050565b60606000808473ffffffffffffffffffffffffffffffffffffffff16846040516116c3919061250b565b600060405180830381855af49150503d80600081146116fe576040519150601f19603f3d011682016040523d82523d6000602084013e611703565b606091505b509150915061171385838361177a565b9250505092915050565b6000341115611758576040517fb398979f00000000000000000000000000000000000000000000000000000000815260040160405180910390fd5b565b6000611764611414565b60000160089054906101000a900460ff16905090565b60608261178f5761178a82611809565b611801565b600082511480156117b7575060008473ffffffffffffffffffffffffffffffffffffffff163b145b156117f957836040517f9996b3150000000000000000000000000000000000000000000000000000000081526004016117f09190612480565b60405180910390fd5b819050611802565b5b9392505050565b60008151111561181b57805160208201fd5b6040517fd6bda27500000000000000000000000000000000000000000000000000000000815260040160405180910390fd5b6000604051905090565b600080fd5b600080fd5b60007fffffffff0000000000000000000000000000000000000000000000000000000082169050919050565b61189681611861565b81146118a157600080fd5b50565b6000813590506118b38161188d565b92915050565b6000602082840312156118cf576118ce611857565b5b60006118dd848285016118a4565b91505092915050565b60008115159050919050565b6118fb816118e6565b82525050565b600060208201905061191660008301846118f2565b92915050565b6000819050919050565b61192f8161191c565b82525050565b600060208201905061194a6000830184611926565b92915050565b6119598161191c565b811461196457600080fd5b50565b60008135905061197681611950565b92915050565b60006020828403121561199257611991611857565b5b60006119a084828501611967565b91505092915050565b600073ffffffffffffffffffffffffffffffffffffffff82169050919050565b60006119d4826119a9565b9050919050565b6119e4816119c9565b81146119ef57600080fd5b50565b600081359050611a01816119db565b92915050565b60008060408385031215611a1e57611a1d611857565b5b6000611a2c85828601611967565b9250506020611a3d858286016119f2565b9150509250929050565b600080fd5b600080fd5b6000601f19601f8301169050919050565b7f4e487b7100000000000000000000000000000000000000000000000000000000600052604160045260246000fd5b611a9a82611a51565b810181811067ffffffffffffffff82111715611ab957611ab8611a62565b5b80604052505050565b6000611acc61184d565b9050611ad88282611a91565b919050565b600067ffffffffffffffff821115611af857611af7611a62565b5b611b0182611a51565b9050602081019050919050565b82818337600083830152505050565b6000611b30611b2b84611add565b611ac2565b905082815260208101848484011115611b4c57611b4b611a4c565b5b611b57848285611b0e565b509392505050565b600082601f830112611b7457611b73611a47565b5b8135611b84848260208601611b1d565b91505092915050565b60008060408385031215611ba457611ba3611857565b5b6000611bb2858286016119f2565b925050602083013567ffffffffffffffff811115611bd357611bd261185c565b5b611bdf85828601611b5f565b9150509250929050565b600067ffffffffffffffff821115611c0457611c03611a62565b5b611c0d82611a51565b9050602081019050919050565b6000611c2d611c2884611be9565b611ac2565b905082815260208101848484011115611c4957611c48611a4c565b5b611c54848285611b0e565b509392505050565b600082601f830112611c7157611c70611a47565b5b8135611c81848260208601611c1a565b91505092915050565b600080600080600060a08688031215611ca657611ca5611857565b5b600086013567ffffffffffffffff811115611cc457611cc361185c565b5b611cd088828901611c5c565b955050602086013567ffffffffffffffff811115611cf157611cf061185c565b5b611cfd88828901611c5c565b9450506040611d0e88828901611967565b935050606086013567ffffffffffffffff811115611d2f57611d2e61185c565b5b611d3b88828901611c5c565b925050608086013567ffffffffffffffff811115611d5c57611d5b61185c565b5b611d6888828901611c5c565b9150509295509295909350565b600081519050919050565b600082825260208201905092915050565b60005b83811015611daf578082015181840152602081019050611d94565b60008484015250505050565b6000611dc682611d75565b611dd08185611d80565b9350611de0818560208601611d91565b611de981611a51565b840191505092915050565b60006020820190508181036000830152611e0e8184611dbb565b905092915050565b600060208284031215611e2c57611e2b611857565b5b600082013567ffffffffffffffff811115611e4a57611e4961185c565b5b611e5684828501611c5c565b91505092915050565b611e68816119c9565b82525050565b6000819050919050565b611e8181611e6e565b82525050565b600060e0820190508181036000830152611ea1818a611dbb565b90508181036020830152611eb58189611dbb565b9050611ec46040830188611e5f565b611ed16060830187611926565b611ede6080830186611e78565b81810360a0830152611ef08185611dbb565b905081810360c0830152611f048184611dbb565b905098975050505050505050565b600060208284031215611f2857611f27611857565b5b6000611f36848285016119f2565b91505092915050565b60008060408385031215611f5657611f55611857565b5b600083013567ffffffffffffffff811115611f7457611f7361185c565b5b611f8085828601611c5c565b9250506020611f9185828601611967565b9150509250929050565b600081905092915050565b6000611fb182611d75565b611fbb8185611f9b565b9350611fcb818560208601611d91565b80840191505092915050565b6000611fe38284611fa6565b915081905092915050565b7f426c6f636b20616c726561647920657869737473000000000000000000000000600082015250565b6000612024601483611d80565b915061202f82611fee565b602082019050919050565b6000602082019050818103600083015261205381612017565b9050919050565b7f4e487b7100000000000000000000000000000000000000000000000000000000600052602260045260246000fd5b600060028204905060018216806120a157607f821691505b6020821081036120b4576120b361205a565b5b50919050565b60008190508160005260206000209050919050565b60006020601f8301049050919050565b600082821b905092915050565b60006008830261211c7fffffffffffffffffffffffffffffffffffffffffffffffffffffffffffffffff826120df565b61212686836120df565b95508019841693508086168417925050509392505050565b6000819050919050565b600061216361215e61215984611e6e565b61213e565b611e6e565b9050919050565b6000819050919050565b61217d83612148565b6121916121898261216a565b8484546120ec565b825550505050565b600090565b6121a6612199565b6121b1818484612174565b505050565b5b818110156121d5576121ca60008261219e565b6001810190506121b7565b5050565b601f82111561221a576121eb816120ba565b6121f4846120cf565b81016020851015612203578190505b61221761220f856120cf565b8301826121b6565b50505b505050565b600082821c905092915050565b600061223d6000198460080261221f565b1980831691505092915050565b6000612256838361222c565b9150826002028217905092915050565b61226f82611d75565b67ffffffffffffffff81111561228857612287611a62565b5b6122928254612089565b61229d8282856121d9565b600060209050601f8311600181146122d057600084156122be578287015190505b6122c8858261224a565b865550612330565b601f1984166122de866120ba565b60005b82811015612306578489015182556001820191506020850194506020810190506122e1565b86831015612323578489015161231f601f89168261222c565b8355505b6001600288020188555050505b505050505050565b600060408201905081810360008301526123528185611dbb565b90506123616020830184611926565b9392505050565b6000819050919050565b600067ffffffffffffffff82169050919050565b60006123a161239c61239784612368565b61213e565b612372565b9050919050565b6123b181612386565b82525050565b60006020820190506123cc60008301846123a8565b92915050565b7f426c6f636b20646f6573206e6f74206578697374000000000000000000000000600082015250565b6000612408601483611d80565b9150612413826123d2565b602082019050919050565b60006020820190508181036000830152612437816123fb565b9050919050565b60008151905061244d81611950565b92915050565b60006020828403121561246957612468611857565b5b60006124778482850161243e565b91505092915050565b60006020820190506124956000830184611e5f565b92915050565b60006040820190506124b06000830185611e5f565b6124bd6020830184611926565b9392505050565b600081519050919050565b600081905092915050565b60006124e5826124c4565b6124ef81856124cf565b93506124ff818560208601611d91565b80840191505092915050565b600061251782846124da565b91508190509291505056fea2646970667358221220c9db8d62e467f807ebb198929d7f1f0f54ee38ec21349aff818ed34b109e815a64736f6c63430008160033",
  "linkReferences": {},
  "deployedLinkReferences": {}
}