{
  "_format": "hh-sol-artifact-1",
  "contractName": "YAMORegistry",
  "sourceName": "contracts/YAMORegistry.sol",
  "abi": [
    {
      "inputs": [],
      "stateMutability": "nonpayable",
      "type": "constructor"
    },
    {
      "inputs": [],
      "name": "AccessControlBadConfirmation",
      "type": "error"
    },
    {
      "inputs": [
        {
          "internalType": "address",
          "name": "account",
          "type": "address"
        },
        {
          "internalType": "bytes32",
          "name": "neededRole",
          "type": "bytes32"
        }
      ],
      "name": "AccessControlUnauthorizedAccount",
      "type": "error"
    },
    {
      "inputs": [
        {
          "internalType": "address",
          "name": "target",
          "type": "address"
        }
      ],
      "name": "AddressEmptyCode",
      "type": "error"
    },
    {
      "inputs": [
        {
          "internalType": "address",
          "name": "implementation",
          "type": "address"
        }
      ],
      "name": "ERC1967InvalidImplementation",
      "type": "error"
    },
    {
      "inputs": [],
      "name": "ERC1967NonPayable",
      "type": "error"
    },
    {
      "inputs": [],
      "name": "FailedCall",
      "type": "error"
    },
    {
      "inputs": [],
      "name": "InvalidInitialization",
      "type": "error"
    },
    {
      "inputs": [],
      "name": "NotInitializing",
      "type": "error"
    },
    {
      "inputs": [],
      "name": "UUPSUnauthorizedCallContext",
      "type": "error"
    },
    {
      "inputs": [
        {
          "internalType": "bytes32",
          "name": "slot",
          "type": "bytes32"
        }
      ],
      "name": "UUPSUnsupportedProxiableUUID",
      "type": "error"
    },
    {
      "anonymous": false,
      "inputs": [
        {
          "indexed": false,
          "internalType": "uint64",
          "name": "version",
          "type": "uint64"
        }
      ],
      "name": "Initialized",
      "type": "event"
    },
    {
      "anonymous": false,
      "inputs": [
        {
          "indexed": true,
          "internalType": "bytes32",
          "name": "role",
          "type": "bytes32"
        },
        {
          "indexed": true,
          "internalType": "bytes32",
          "name": "previousAdminRole",
          "type": "bytes32"
        },
        {
          "indexed": true,
          "internalType": "bytes32",
          "name": "newAdminRole",
          "type": "bytes32"
        }
      ],
      "name": "RoleAdminChanged",
      "type": "event"
    },
    {
      "anonymous": false,
      "inputs": [
        {
          "indexed": true,
          "internalType": "bytes32",
          "name": "role",
          "type": "bytes32"
        },
        {
          "indexed": true,
          "internalType": "address",
          "name": "account",
          "type": "address"
        },
        {
          "indexed": true,
          "internalType": "address",
          "name": "sender",
          "type": "address"
        }
      ],
      "name": "RoleGranted",
      "type": "event"
    },
    {
      "anonymous": false,
      "inputs": [
        {
          "indexed": true,
          "internalType": "bytes32",
          "name": "role",
          "type": "bytes32"
        },
        {
          "indexed": true,
          "internalType": "address",
          "name": "account",
          "type": "address"
        },
        {
          "indexed": true,
          "internalType": "address",
          "name": "sender",
          "type": "address"
        }
      ],
      "name": "RoleRevoked",
      "type": "event"
    },
    {
      "anonymous": false,
      "inputs": [
        {
          "indexed": true,
          "internalType": "address",
          "name": "implementation",
          "type": "address"
        }
      ],
      "name": "Upgraded",
      "type": "event"
    },
    {
      "anonymous": false,
      "inputs": [
        {
          "indexed": true,
          "internalType": "string",
          "name": "blockId",
          "type": "string"
        },
        {
          "indexed": false,
          "internalType": "string",
          "name": "previousBlock",
          "type": "string"
        },
        {
          "indexed": true,
          "internalType": "address",
          "name": "agent",
          "type": "address"
        },
        {
          "indexed": false,
          "internalType": "bytes32",
          "name": "contentHash",
          "type": "bytes32"
        }
      ],
      "name": "YAMOBlockSubmitted",
      "type": "event"
    },
    {
      "inputs": [],
      "name": "AGENT_ROLE",
      "outputs": [
        {
          "internalType": "bytes32",
          "name": "",
          "type": "bytes32"
        }
      ],
      "stateMutability": "view",
      "type": "function"
    },
    {
      "inputs": [],
      "name": "DEFAULT_ADMIN_ROLE",
      "outputs": [
        {
          "internalType": "bytes32",
          "name": "",
          "type": "bytes32"
        }
      ],
      "stateMutability": "view",
      "type": "function"
    },
    {
      "inputs": [],
      "name": "UPGRADER_ROLE",
      "outputs": [
        {
          "internalType": "bytes32",
          "name": "",
          "type": "bytes32"
        }
      ],
      "stateMutability": "view",
      "type": "function"
    },
    {
      "inputs": [],
      "name": "UPGRADE_INTERFACE_VERSION",
      "outputs": [
        {
          "internalType": "string",
          "name": "",
          "type": "string"
        }
      ],
      "stateMutability": "view",
      "type": "function"
    },
    {
      "inputs": [
        {
          "internalType": "string",
          "name": "",
          "type": "string"
        }
      ],
      "name": "blockExists",
      "outputs": [
        {
          "internalType": "bool",
          "name": "",
          "type": "bool"
        }
      ],
      "stateMutability": "view",
      "type": "function"
    },
    {
      "inputs": [
        {
          "internalType": "string",
          "name": "",
          "type": "string"
        }
      ],
      "name": "blocks",
      "outputs": [
        {
          "internalType": "string",
          "name": "blockId",
          "type": "string"
        },
        {
          "internalType": "string",
          "name": "previousBlock",
          "type": "string"
        },
        {
          "internalType": "address",
          "name": "agentAddress",
          "type": "address"
        },
        {
          "internalType": "bytes32",
          "name": "contentHash",
          "type": "bytes32"
        },
        {
          "internalType": "uint256",
          "name": "timestamp",
          "type": "uint256"
        },
        {
          "internalType": "string",
          "name": "consensusType",
          "type": "string"
        },
        {
          "internalType": "string",
          "name": "ledger",
          "type": "string"
        }
      ],
      "stateMutability": "view",
      "type": "function"
    },
    {
      "inputs": [
        {
          "internalType": "bytes32",
          "name": "role",
          "type": "bytes32"
        }
      ],
      "name": "getRoleAdmin",
      "outputs": [
        {
          "internalType": "bytes32",
          "name": "",
          "type": "bytes32"
        }
      ],
      "stateMutability": "view",
      "type": "function"
    },
    {
      "inputs": [
        {
          "internalType": "bytes32",
          "name": "role",
          "type": "bytes32"
        },
        {
          "internalType": "address",
          "name": "account",
          "type": "address"
        }
      ],
      "name": "grantRole",
      "outputs": [],
      "stateMutability": "nonpayable",
      "type": "function"
    },
    {
      "inputs": [
        {
          "internalType": "bytes32",
          "name": "role",
          "type": "bytes32"
        },
        {
          "internalType": "address",
          "name": "account",
          "type": "address"
        }
      ],
      "name": "hasRole",
      "outputs": [
        {
          "internalType": "bool",
          "name": "",
          "type": "bool"
        }
      ],
      "stateMutability": "view",
      "type": "function"
    },
    {
      "inputs": [
        {
          "internalType": "address",
          "name": "defaultAdmin",
          "type": "address"
        }
      ],
      "name": "initialize",
      "outputs": [],
      "stateMutability": "nonpayable",
      "type": "function"
    },
    {
      "inputs": [],
      "name": "latestBlockHash",
      "outputs": [
        {
          "internalType": "bytes32",
          "name": "",
          "type": "bytes32"
        }
      ],
      "stateMutability": "view",
      "type": "function"
    },
    {
      "inputs": [],
      "name": "proxiableUUID",
      "outputs": [
        {
          "internalType": "bytes32",
          "name": "",
          "type": "bytes32"
        }
      ],
      "stateMutability": "view",
      "type": "function"
    },
    {
      "inputs": [
        {
          "internalType": "bytes32",
          "name": "role",
          "type": "bytes32"
        },
        {
          "internalType": "address",
          "name": "callerConfirmation",
          "type": "address"
        }
      ],
      "name": "renounceRole",
      "outputs": [],
      "stateMutability": "nonpayable",
      "type": "function"
    },
    {
      "inputs": [
        {
          "internalType": "bytes32",
          "name": "role",
          "type": "bytes32"
        },
        {
          "internalType": "address",
          "name": "account",
          "type": "address"
        }
      ],
      "name": "revokeRole",
      "outputs": [],
      "stateMutability": "nonpayable",
      "type": "function"
    },
    {
      "inputs": [
        {
          "internalType": "string",
          "name": "blockId",
          "type": "string"
        },
        {
          "internalType": "string",
          "name": "previousBlock",
          "type": "string"
        },
        {
          "internalType": "bytes32",
          "name": "contentHash",
          "type": "bytes32"
        },
        {
          "internalType": "string",
          "name": "consensusType",
          "type": "string"
        },
        {
          "internalType": "string",
          "name": "ledger",
          "type": "string"
        }
      ],
      "name": "submitBlock",
      "outputs": [],
      "stateMutability": "nonpayable",
      "type": "function"
    },
    {
      "inputs": [
        {
          "internalType": "bytes4",
          "name": "interfaceId",
          "type": "bytes4"
        }
      ],
      "name": "supportsInterface",
      "outputs": [
        {
          "internalType": "bool",
          "name": "",
          "type": "bool"
        }
      ],
      "stateMutability": "view",
      "type": "function"
    },
    {
      "inputs": [
        {
          "internalType": "address",
          "name": "newImplementation",
          "type": "address"
        },
        {
          "internalType": "bytes",
          "name": "data",
          "type": "bytes"
        }
      ],
      "name": "upgradeToAndCall",
      "outputs": [],
      "stateMutability": "payable",
      "type": "function"
    },
    {
      "inputs": [
        {
          "internalType": "string",
          "name": "blockId",
          "type": "string"
        },
        {
          "internalType": "bytes32",
          "name": "contentHash",
          "type": "bytes32"
        }
      ],
      "name": "verifyBlock",
      "outputs": [
        {
          "internalType": "bool",
          "name": "",
          "type": "bool"
        }
      ],
      "stateMutability": "view",
      "type": "function"
    }
  ],
  "bytecode": "0x60a06040523073ffffffffffffffffffffffffffffffffffffffff1660809073ffffffffffffffffffffffffffffffffffffffff168152503480156200004457600080fd5b50620000556200005b60201b60201c565b620001ee565b60006200006d6200016560201b60201c565b90508060000160089054906101000a900460ff1615620000b9576040517ff92ee8a900000000000000000000000000000000000000000000000000000000815260040160405180910390fd5b67ffffffffffffffff80168160000160009054906101000a900467ffffffffffffffff1667ffffffffffffffff1614620001625767ffffffffffffffff8160000160006101000a81548167ffffffffffffffff021916908367ffffffffffffffff1602179055507fc7f505b2f371ae2175ee4913f4499e1f2633a7b5936321eed1cdaeb6115181d267ffffffffffffffff604051620001599190620001d1565b60405180910390a15b50565b600080620001786200018160201b60201c565b90508091505090565b60007ff0c57e16840df040f15088dc2f81fe391c3923bec73e23a9662efc9c229c6a0060001b905090565b600067ffffffffffffffff82169050919050565b620001cb81620001ac565b82525050565b6000602082019050620001e86000830184620001c0565b92915050565b60805161259b620002186000396000818161119f015281816111f401526113d2015261259b6000f3fe6080604052600436106101095760003560e01c806391d1485411610095578063c4d66de811610064578063c4d66de814610376578063d547741f1461039f578063dddc481d146103c8578063f72c0d8b14610405578063f8b5b7f61461043057610109565b806391d14854146102a0578063a217fddf146102dd578063ad3cb1cc14610308578063b312ded31461033357610109565b806336568abe116100dc57806336568abe146101dc5780634f1ef2861461020557806352d1902d146102215780636c4f6ba91461024c5780638257fcca1461027757610109565b806301ffc9a71461010e57806322459e181461014b578063248a9ca3146101765780632f2ff15d146101b3575b600080fd5b34801561011a57600080fd5b50610135600480360381019061013091906118fc565b61046d565b6040516101429190611944565b60405180910390f35b34801561015757600080fd5b506101606104e7565b60405161016d9190611978565b60405180910390f35b34801561018257600080fd5b5061019d600480360381019061019891906119bf565b61050b565b6040516101aa9190611978565b60405180910390f35b3480156101bf57600080fd5b506101da60048036038101906101d59190611a4a565b610539565b005b3480156101e857600080fd5b5061020360048036038101906101fe9190611a4a565b61055b565b005b61021f600480360381019061021a9190611bd0565b6105d6565b005b34801561022d57600080fd5b506102366105f5565b6040516102439190611978565b60405180910390f35b34801561025857600080fd5b50610261610628565b60405161026e9190611978565b60405180910390f35b34801561028357600080fd5b5061029e60048036038101906102999190611ccd565b61062e565b005b3480156102ac57600080fd5b506102c760048036038101906102c29190611a4a565b61088c565b6040516102d49190611944565b60405180910390f35b3480156102e957600080fd5b506102f2610905565b6040516102ff9190611978565b60405180910390f35b34801561031457600080fd5b5061031d61090c565b60405161032a9190611e37565b60405180910390f35b34801561033f57600080fd5b5061035a60048036038101906103559190611e59565b610945565b60405161036d9796959493929190611eca565b60405180910390f35b34801561038257600080fd5b5061039d60048036038101906103989190611f55565b610bdd565b005b3480156103ab57600080fd5b506103c660048036038101906103c19190611a4a565b610dd7565b005b3480156103d457600080fd5b506103ef60048036038101906103ea9190611f82565b610df9565b6040516103fc9190611944565b60405180910390f35b34801561041157600080fd5b5061041a610e92565b6040516104279190611978565b60405180910390f35b34801561043c57600080fd5b5061045760048036038101906104529190611e59565b610eb6565b6040516104649190611944565b60405180910390f35b60007f7965db0b000000000000000000000000000000000000000000000000000000007bffffffffffffffffffffffffffffffffffffffffffffffffffffffff1916827bffffffffffffffffffffffffffffffffffffffffffffffffffffffff191614806104e057506104df82610eec565b5b9050919050565b7fcab5a0bfe0b79d2c4b1c2e02599fa044d115b7511f9659307cb427695096770981565b600080610516610f56565b905080600001600084815260200190815260200160002060010154915050919050565b6105428261050b565b61054b81610f7e565b6105558383610f92565b50505050565b610563611093565b73ffffffffffffffffffffffffffffffffffffffff168173ffffffffffffffffffffffffffffffffffffffff16146105c7576040517f6697b23200000000000000000000000000000000000000000000000000000000815260040160405180910390fd5b6105d1828261109b565b505050565b6105de61119d565b6105e782611283565b6105f182826112b1565b5050565b60006105ff6113d0565b7f360894a13ba1a3210667c828492db98dca3e2076cc3735a920a3ca505d382bbc60001b905090565b60025481565b7fcab5a0bfe0b79d2c4b1c2e02599fa044d115b7511f9659307cb427695096770961065881610f7e565b600186604051610668919061201a565b908152602001604051809103902060009054906101000a900460ff16156106c4576040517f08c379a00000000000000000000000000000000000000000000000000000000081526004016106bb9061207d565b60405180910390fd5b6040518060e001604052808781526020018681526020013373ffffffffffffffffffffffffffffffffffffffff1681526020018581526020014281526020018481526020018381525060008760405161071d919061201a565b9081526020016040518091039020600082015181600001908161074091906122a9565b50602082015181600101908161075691906122a9565b5060408201518160020160006101000a81548173ffffffffffffffffffffffffffffffffffffffff021916908373ffffffffffffffffffffffffffffffffffffffff160217905550606082015181600301556080820151816004015560a08201518160050190816107c791906122a9565b5060c08201518160060190816107dd91906122a9565b50905050600180876040516107f2919061201a565b908152602001604051809103902060006101000a81548160ff021916908315150217905550836002819055503373ffffffffffffffffffffffffffffffffffffffff1686604051610843919061201a565b60405180910390207fbeb584683cd5accbe9cbd3a5eaeec08b8908660194089e7c33a8dc2191777d8a878760405161087c92919061237b565b60405180910390a3505050505050565b600080610897610f56565b905080600001600085815260200190815260200160002060000160008473ffffffffffffffffffffffffffffffffffffffff1673ffffffffffffffffffffffffffffffffffffffff16815260200190815260200160002060009054906101000a900460ff1691505092915050565b6000801b81565b6040518060400160405280600581526020017f352e302e3000000000000000000000000000000000000000000000000000000081525081565b60008180516020810182018051848252602083016020850120818352809550505050505060009150905080600001805461097e906120cc565b80601f01602080910402602001604051908101604052809291908181526020018280546109aa906120cc565b80156109f75780601f106109cc576101008083540402835291602001916109f7565b820191906000526020600020905b8154815290600101906020018083116109da57829003601f168201915b505050505090806001018054610a0c906120cc565b80601f0160208091040260200160405190810160405280929190818152602001828054610a38906120cc565b8015610a855780601f10610a5a57610100808354040283529160200191610a85565b820191906000526020600020905b815481529060010190602001808311610a6857829003601f168201915b5050505050908060020160009054906101000a900473ffffffffffffffffffffffffffffffffffffffff1690806003015490806004015490806005018054610acc906120cc565b80601f0160208091040260200160405190810160405280929190818152602001828054610af8906120cc565b8015610b455780601f10610b1a57610100808354040283529160200191610b45565b820191906000526020600020905b815481529060010190602001808311610b2857829003601f168201915b505050505090806006018054610b5a906120cc565b80601f0160208091040260200160405190810160405280929190818152602001828054610b86906120cc565b8015610bd35780601f10610ba857610100808354040283529160200191610bd3565b820191906000526020600020905b815481529060010190602001808311610bb657829003601f168201915b5050505050905087565b6000610be7611457565b905060008160000160089054906101000a900460ff1615905060008260000160009054906101000a900467ffffffffffffffff1690506000808267ffffffffffffffff16148015610c355750825b9050600060018367ffffffffffffffff16148015610c6a575060003073ffffffffffffffffffffffffffffffffffffffff163b145b905081158015610c78575080155b15610caf576040517ff92ee8a900000000000000000000000000000000000000000000000000000000815260040160405180910390fd5b60018560000160006101000a81548167ffffffffffffffff021916908367ffffffffffffffff1602179055508315610cff5760018560000160086101000a81548160ff0219169083151502179055505b610d0761146b565b610d0f611475565b610d1c6000801b87610f92565b50610d477fcab5a0bfe0b79d2c4b1c2e02599fa044d115b7511f9659307cb427695096770987610f92565b50610d727f189ab7a9244df0848122154315af71fe140f3db0fe014031783b0946b8c9d2e387610f92565b508315610dcf5760008560000160086101000a81548160ff0219169083151502179055507fc7f505b2f371ae2175ee4913f4499e1f2633a7b5936321eed1cdaeb6115181d26001604051610dc691906123fa565b60405180910390a15b505050505050565b610de08261050b565b610de981610f7e565b610df3838361109b565b50505050565b6000600183604051610e0b919061201a565b908152602001604051809103902060009054906101000a900460ff16610e66576040517f08c379a0000000000000000000000000000000000000000000000000000000008152600401610e5d90612461565b60405180910390fd5b81600084604051610e77919061201a565b90815260200160405180910390206003015414905092915050565b7f189ab7a9244df0848122154315af71fe140f3db0fe014031783b0946b8c9d2e381565b6001818051602081018201805184825260208301602085012081835280955050505050506000915054906101000a900460ff1681565b60007f01ffc9a7000000000000000000000000000000000000000000000000000000007bffffffffffffffffffffffffffffffffffffffffffffffffffffffff1916827bffffffffffffffffffffffffffffffffffffffffffffffffffffffff1916149050919050565b60007f02dd7bc7dec4dceedda775e58dd541e08a116c6c53815c0bd028192f7b626800905090565b610f8f81610f8a611093565b61147f565b50565b600080610f9d610f56565b9050610fa9848461088c565b61108757600181600001600086815260200190815260200160002060000160008573ffffffffffffffffffffffffffffffffffffffff1673ffffffffffffffffffffffffffffffffffffffff16815260200190815260200160002060006101000a81548160ff021916908315150217905550611023611093565b73ffffffffffffffffffffffffffffffffffffffff168373ffffffffffffffffffffffffffffffffffffffff16857f2f8788117e7eff1d82e926ec794901d17c78024a50270940304540a733656f0d60405160405180910390a4600191505061108d565b60009150505b92915050565b600033905090565b6000806110a6610f56565b90506110b2848461088c565b1561119157600081600001600086815260200190815260200160002060000160008573ffffffffffffffffffffffffffffffffffffffff1673ffffffffffffffffffffffffffffffffffffffff16815260200190815260200160002060006101000a81548160ff02191690831515021790555061112d611093565b73ffffffffffffffffffffffffffffffffffffffff168373ffffffffffffffffffffffffffffffffffffffff16857ff6391f5c32d9c69d2a47ea670b442974b53935d1edc7fd64eb21e047a839171b60405160405180910390a46001915050611197565b60009150505b92915050565b7f000000000000000000000000000000000000000000000000000000000000000073ffffffffffffffffffffffffffffffffffffffff163073ffffffffffffffffffffffffffffffffffffffff16148061124a57507f000000000000000000000000000000000000000000000000000000000000000073ffffffffffffffffffffffffffffffffffffffff166112316114d0565b73ffffffffffffffffffffffffffffffffffffffff1614155b15611281576040517fe07c8dba00000000000000000000000000000000000000000000000000000000815260040160405180910390fd5b565b7f189ab7a9244df0848122154315af71fe140f3db0fe014031783b0946b8c9d2e36112ad81610f7e565b5050565b8173ffffffffffffffffffffffffffffffffffffffff166352d1902d6040518163ffffffff1660e01b8152600401602060405180830381865afa92505050801561131957506040513d601f19601f820116820180604052508101906113169190612496565b60015b61135a57816040517f4c9c8ce300000000000000000000000000000000000000000000000000000000815260040161135191906124c3565b60405180910390fd5b7f360894a13ba1a3210667c828492db98dca3e2076cc3735a920a3ca505d382bbc60001b81146113c157806040517faa1d49a40000000000000000000000000000000000000000000000000000000081526004016113b89190611978565b60405180910390fd5b6113cb8383611527565b505050565b7f000000000000000000000000000000000000000000000000000000000000000073ffffffffffffffffffffffffffffffffffffffff163073ffffffffffffffffffffffffffffffffffffffff1614611455576040517fe07c8dba00000000000000000000000000000000000000000000000000000000815260040160405180910390fd5b565b60008061146261159a565b90508091505090565b6114736115c5565b565b61147d6115c5565b565b611489828261088c565b6114cc5780826040517fe2517d3f0000000000000000000000000000000000000000000000000000000081526004016114c39291906124de565b60405180910390fd5b5050565b60006114fe7f360894a13ba1a3210667c828492db98dca3e2076cc3735a920a3ca505d382bbc60001b611605565b60000160009054906101000a900473ffffffffffffffffffffffffffffffffffffffff16905090565b6115308261160f565b8173ffffffffffffffffffffffffffffffffffffffff167fbc7cd75a20ee27fd9adebab32041f755214dbc6bffa90cc0225b39da2e5c2d3b60405160405180910390a260008151111561158d5761158782826116dc565b50611596565b611595611760565b5b5050565b60007ff0c57e16840df040f15088dc2f81fe391c3923bec73e23a9662efc9c229c6a0060001b905090565b6115cd61179d565b611603576040517fd7e6bcf800000000000000000000000000000000000000000000000000000000815260040160405180910390fd5b565b6000819050919050565b60008173ffffffffffffffffffffffffffffffffffffffff163b0361166b57806040517f4c9c8ce300000000000000000000000000000000000000000000000000000000815260040161166291906124c3565b60405180910390fd5b806116987f360894a13ba1a3210667c828492db98dca3e2076cc3735a920a3ca505d382bbc60001b611605565b60000160006101000a81548173ffffffffffffffffffffffffffffffffffffffff021916908373ffffffffffffffffffffffffffffffffffffffff16021790555050565b60606000808473ffffffffffffffffffffffffffffffffffffffff1684604051611706919061254e565b600060405180830381855af49150503d8060008114611741576040519150601f19603f3d011682016040523d82523d6000602084013e611746565b606091505b50915091506117568583836117bd565b9250505092915050565b600034111561179b576040517fb398979f00000000000000000000000000000000000000000000000000000000815260040160405180910390fd5b565b60006117a7611457565b60000160089054906101000a900460ff16905090565b6060826117d2576117cd8261184c565b611844565b600082511480156117fa575060008473ffffffffffffffffffffffffffffffffffffffff163b145b1561183c57836040517f9996b31500000000000000000000000000000000000000000000000000000000815260040161183391906124c3565b60405180910390fd5b819050611845565b5b9392505050565b60008151111561185e57805160208201fd5b6040517fd6bda27500000000000000000000000000000000000000000000000000000000815260040160405180910390fd5b6000604051905090565b600080fd5b600080fd5b60007fffffffff0000000000000000000000000000000000000000000000000000000082169050919050565b6118d9816118a4565b81146118e457600080fd5b50565b6000813590506118f6816118d0565b92915050565b6000602082840312156119125761191161189a565b5b6000611920848285016118e7565b91505092915050565b60008115159050919050565b61193e81611929565b82525050565b60006020820190506119596000830184611935565b92915050565b6000819050919050565b6119728161195f565b82525050565b600060208201905061198d6000830184611969565b92915050565b61199c8161195f565b81146119a757600080fd5b50565b6000813590506119b981611993565b92915050565b6000602082840312156119d5576119d461189a565b5b60006119e3848285016119aa565b91505092915050565b600073ffffffffffffffffffffffffffffffffffffffff82169050919050565b6000611a17826119ec565b9050919050565b611a2781611a0c565b8114611a3257600080fd5b50565b600081359050611a4481611a1e565b92915050565b60008060408385031215611a6157611a6061189a565b5b6000611a6f858286016119aa565b9250506020611a8085828601611a35565b9150509250929050565b600080fd5b600080fd5b6000601f19601f8301169050919050565b7f4e487b7100000000000000000000000000000000000000000000000000000000600052604160045260246000fd5b611add82611a94565b810181811067ffffffffffffffff82111715611afc57611afb611aa5565b5b80604052505050565b6000611b0f611890565b9050611b1b8282611ad4565b919050565b600067ffffffffffffffff821115611b3b57611b3a611aa5565b5b611b4482611a94565b9050602081019050919050565b82818337600083830152505050565b6000611b73611b6e84611b20565b611b05565b905082815260208101848484011115611b8f57611b8e611a8f565b5b611b9a848285611b51565b509392505050565b600082601f830112611bb757611bb6611a8a565b5b8135611bc7848260208601611b60565b91505092915050565b60008060408385031215611be757611be661189a565b5b6000611bf585828601611a35565b925050602083013567ffffffffffffffff811115611c1657611c1561189f565b5b611c2285828601611ba2565b9150509250929050565b600067ffffffffffffffff821115611c4757611c46611aa5565b5b611c5082611a94565b9050602081019050919050565b6000611c70611c6b84611c2c565b611b05565b905082815260208101848484011115611c8c57611c8b611a8f565b5b611c97848285611b51565b509392505050565b600082601f830112611cb457611cb3611a8a565b5b8135611cc4848260208601611c5d565b91505092915050565b600080600080600060a08688031215611ce957611ce861189a565b5b600086013567ffffffffffffffff811115611d0757611d0661189f565b5b611d1388828901611c9f565b955050602086013567ffffffffffffffff811115611d3457611d3361189f565b5b611d4088828901611c9f565b9450506040611d51888289016119aa565b935050606086013567ffffffffffffffff811115611d7257611d7161189f565b5b611d7e88828901611c9f565b925050608086013567ffffffffffffffff811115611d9f57611d9e61189f565b5b611dab88828901611c9f565b9150509295509295909350565b600081519050919050565b600082825260208201905092915050565b60005b83811015611df2578082015181840152602081019050611dd7565b60008484015250505050565b6000611e0982611db8565b611e138185611dc3565b9350611e23818560208601611dd4565b611e2c81611a94565b840191505092915050565b60006020820190508181036000830152611e518184611dfe565b905092915050565b600060208284031215611e6f57611e6e61189a565b5b600082013567ffffffffffffffff811115611e8d57611e8c61189f565b5b611e9984828501611c9f565b91505092915050565b611eab81611a0c565b82525050565b6000819050919050565b611ec481611eb1565b82525050565b600060e0820190508181036000830152611ee4818a611dfe565b90508181036020830152611ef88189611dfe565b9050611f076040830188611ea2565b611f146060830187611969565b611f216080830186611ebb565b81810360a0830152611f338185611dfe565b905081810360c0830152611f478184611dfe565b905098975050505050505050565b600060208284031215611f6b57611f6a61189a565b5b6000611f7984828501611a35565b91505092915050565b60008060408385031215611f9957611f9861189a565b5b600083013567ffffffffffffffff811115611fb757611fb661189f565b5b611fc385828601611c9f565b9250506020611fd4858286016119aa565b9150509250929050565b600081905092915050565b6000611ff482611db8565b611ffe8185611fde565b935061200e818560208601611dd4565b80840191505092915050565b60006120268284611fe9565b915081905092915050565b7f426c6f636b20616c726561647920657869737473000000000000000000000000600082015250565b6000612067601483611dc3565b915061207282612031565b602082019050919050565b600060208201905081810360008301526120968161205a565b9050919050565b7f4e487b7100000000000000000000000000000000000000000000000000000000600052602260045260246000fd5b600060028204905060018216806120e457607f821691505b6020821081036120f7576120f661209d565b5b50919050565b60008190508160005260206000209050919050565b60006020601f8301049050919050565b600082821b905092915050565b60006008830261215f7fffffffffffffffffffffffffffffffffffffffffffffffffffffffffffffffff82612122565b6121698683612122565b95508019841693508086168417925050509392505050565b6000819050919050565b60006121a66121a161219c84611eb1565b612181565b611eb1565b9050919050565b6000819050919050565b6121c08361218b565b6121d46121cc826121ad565b84845461212f565b825550505050565b600090565b6121e96121dc565b6121f48184846121b7565b505050565b5b818110156122185761220d6000826121e1565b6001810190506121fa565b5050565b601f82111561225d5761222e816120fd565b61223784612112565b81016020851015612246578190505b61225a61225285612112565b8301826121f9565b50505b505050565b600082821c905092915050565b600061228060001984600802612262565b1980831691505092915050565b6000612299838361226f565b9150826002028217905092915050565b6122b282611db8565b67ffffffffffffffff8111156122cb576122ca611aa5565b5b6122d582546120cc565b6122e082828561221c565b600060209050601f8311600181146123135760008415612301578287015190505b61230b858261228d565b865550612373565b601f198416612321866120fd565b60005b8281101561234957848901518255600182019150602085019450602081019050612324565b868310156123665784890151612362601f89168261226f565b8355505b6001600288020188555050505b505050505050565b600060408201905081810360008301526123958185611dfe565b90506123a46020830184611969565b9392505050565b6000819050919050565b600067ffffffffffffffff82169050919050565b60006123e46123df6123da846123ab565b612181565b6123b5565b9050919050565b6123f4816123c9565b82525050565b600060208201905061240f60008301846123eb565b92915050565b7f426c6f636b20646f6573206e6f74206578697374000000000000000000000000600082015250565b600061244b601483611dc3565b915061245682612415565b602082019050919050565b6000602082019050818103600083015261247a8161243e565b9050919050565b60008151905061249081611993565b92915050565b6000602082840312156124ac576124ab61189a565b5b60006124ba84828501612481565b91505092915050565b60006020820190506124d86000830184611ea2565b92915050565b60006040820190506124f36000830185611ea2565b6125006020830184611969565b9392505050565b600081519050919050565b600081905092915050565b600061252882612507565b6125328185612512565b9350612542818560208601611dd4565b80840191505092915050565b600061255a828461251d565b91508190509291505056fea26469706673582212209b5f60edec7408184bef076729b5d3404fe806ea421f7f0d3bffa9eb73162cfd64736f6c63430008160033",
  "linkReferences": {},
  "deployedLinkReferences": {}
}